:100010000C9451000C9451000C9451000C9451001C
:100020000C9451000C9451000C9451000C9451000C
:100050000C9451000C9451000C9451000C945100DC
:100060000C9451000C94510011241FBECFEFD8E026
:1000800005900D92A63CB107D9F723E0A6ECB1E0AC
:1000900001C01D92A631B207E1F70E9495010C94B0
:1000B0008091C80180FD08C08091C80181FD04C005
:1000C0008091C80182FFF4CF08958091C8018E7F8E
:1000D0008093C8018091C8018D7F8093C801809171
:1000E000C8018B7F8093C8011092C7010E94530002
:1000F0000E9458008091C8018E7F8093C801809132
:10010000C8018D7F8093C8018091C8018B7F809347
:10012000C8018E7F8093C8018091C8018D7F809324
:10013000C8018091C8018B7F8093C80182E391E060
:10015000C8018091C8018D7F8093C8018091C8013A
:100160008B7F8093C8018091C8018D7F8093C801E7
:1001A00081FF07C08091C8018D7F8093C80182E0E4
:1001B00008958091C8018E7F8093C8018FE491E0FB
:1001D000C8018091C8018D7F8093C8018091C801BA
:1002100058008091C80181FF11C08091C8018E7F74
:100220008093C8018091C8018D7F8093C80180911F
:10023000C8018B7F8093C80181E008958091C80137
:100240008E7F8093C8018091C8018D7F8093C80103
:100250008091C8018B7F8093C80180E00895EF9260
:10026000FF920F931F93CF93DF9300D000D0CDB7B1
:10027000DEB78C01FC0101900020E9F73197E81B03
:10028000F90BFF93EF9387E891E09F938F93CE0153
:1002C000C80192FD04C09091C80191FFF8CF8091C0
:1002E000C80181FF07C08091C8018D7F8093C8013C
:1002F00081E010C08091C8018E7F8093C8018091F9
:10030000C8018D7F8093C8018091C8018B7F809345
:10031000C80180E00F900F900F900F90DF91CF9168
:100320001F910F91FF90EF9008952FEF8FEF9CE2B8
:10033000215080409040E1F700C0000081E084B986
:00000001FF
