:100000000C9434000C94E2020C9451000C945100B6
:100010000C9451000C9451000C9451000C9451001C
:100020000C9451000C9451000C9451000C9451000C
:100030000C9451000C9411020C9451000C9451003A
:100040000C9451000C9451000C941B040C9451001E
:100050000C9451000C9451000C9451000C945100DC
:100060000C9451000C94510011241FBECFEFD8E026
:10007000DEBFCDBF11E0A0E0B1E0EAE5FFE002C0E5
:1000800005900D92AC3EB107D9F723E0ACEEB1E09C
:1000900001C01D92AC33B207E1F70E94A1010C949C
:1000A000AB070C9400008DE191E00E940C040895D0
:1000B0008091EE0180FD08C08091EE0181FD04C0B9
:1000C0008091EE0182FFF4CF08958091EE018E7F42
:1000D0008093EE018091EE018D7F8093EE018091FF
:1000E000EE018B7F8093EE011092ED010E94530090
:1000F0000E9458008091EE018E7F8093EE018091E6
:10010000EE018D7F8093EE018091EE018B7F8093D5
:10011000EE018BE291E00E940C040E945800809155
:10012000EE018E7F8093EE018091EE018D7F8093B2
:10013000EE018091EE018B7F8093EE0182E391E0EE
:100140000E940C040E9458008091EE018E7F8093E3
:10015000EE018091EE018D7F8093EE018091EE01A2
:100160008B7F8093EE0182E491E00E940C040E9458
:1001700058008091EE018E7F8093EE018091EE0118
:100180008D7F8093EE018091EE018B7F8093EE0155
:100190008091EE018D7F8093EE0180E591E00E94D9
:1001A0000C048BE591E00E940C0484E991E00E942C
:1001B0000C0487E691E00E940C0482E791E00E9423
:1001C0000C040E9458008091EE0181FF07C08091CD
:1001D000EE018D7F8093EE0182E008958091EE0123
:1001E0008E7F8093EE0186E791E00E940C040E94CE
:1001F00058008091EE018E7F8093EE018091EE0198
:100200008D7F8093EE018091EE018B7F8093EE01D4
:1002100084E891E00E940C0488E991E00E940C04BB
:1002200086EA91E00E940C0489EA91E00E940C04A5
:1002300083E791E00E940C040E9458008091EE0137
:100240008E7F8093EE018091EE018D7F8093EE0191
:100250008091EE018B7F8093EE0180E00895EF9214
:10026000FF920F931F93CF93DF9300D000D0CDB7B1
:10027000DEB78C01FC0101900020E9F73197E81B03
:10028000F90BFF93EF938EEA91E09F938F93CE014A
:1002900001967C019F938F930E94D30481EB91E0A0
:1002A0000E940C04C7010E940C0483E791E00E94A5
:1002B0000C040F900F900F900F900F900F90909153
:1002C000EE0192FD04C09091EE0191FFF8CF809174
:1002D000EE0182FF04C0C8010E940C040BC0809193
:1002E000EE0181FF07C08091EE018D7F8093EE01CA
:1002F00081E010C08091EE018E7F8093EE018091AD
:10030000EE018D7F8093EE018091EE018B7F8093D3
:10031000EE0180E00F900F900F900F90DF91CF9142
:100320001F910F91FF90EF900895299A2FEF8FEF73
:100330009CE2215080409040E1F700C000002998E5
:1003400008952FEF8FEF9CE2215080409040E1F71D
:1003500000C00000219A85E08093810081E08093B5
:100360006F000E94220280E10E947D0288EE93E0ED
:100370000E949A0280E895E20E94AA0244E061E0AD
:1003800084E00E94830267E080E00E94D5020E9420
:10039000D00280E090E00E944B0287E79CEC0E9434
:1003A0004B02789487E090E00E94F9030E94650078
:1003B00081EC8093640060E070E080E091E00E9456
:1003C0002F01809168028D3040F060E070E080E0A5
:1003D00091E00E942F01109268028091690287705B
:1003E00011F40E9468038091690282FFEACF80EFD6
:1003F00091E00E948F038E3F58F40E94950160E0C7
:1004000070E080EF91E00E942F0110920002D9CF9E
:100410008111D7CF60E070E089E091E00E942F0168
:10042000D0CF1F920F920FB60F9211248F9380910D
:1004300068028F5F809368028F910F900FBE0F90BC
:100440001F90189584B18C6284B924982A9A2C9AAA
:100450002FEF8FE794E0215080409040E1F700C0FB
:100460000000809169028E7F809369028091690209
:100470008D7F80936902809169028B7F80936902EE
:100480005298E9E6F0E080818D7F808380818E7FC5
:100490008083E89A0895AC012A9890E120E030E04A
:1004A000552314F42B9A01C02B98220F331F1C994B
:1004B00021602D9A440F551F000000002D98915087
:1004C00079F72A9AC901089570E0762F662728E007
:1004D00030E0AB014827592755233CF4880F991F7A
:1004E00041E2842740E1942702C0880F991F660FDC
:1004F000771F2150310969F7089590E0876C906863
:100500000E944B020895477050E05069637070E09C
:10051000660F771F660F771F660F771F462B572BC7
:1005200020E2829FC00111249927842B952B0E94E1
:100530004B0208958036910538F080342FE0920701
:1005400028F08FE39FE002C080E690E0906A0E946E
:100550004B020895873922E0920708F19C01283167
:1005600085E1380778F440E050E060E678EA80E022
:1005700090E00E94B404C90101978068966C0E94C3
:100580004B02089540E050E06CEF72E485E090E0AB
:100590000E949204C9010197966C0E944B02089533
:1005A00080E090EE0E944B020895877090E0986979
:1005B00020E1629FB00111247727862B972B0E94A0
:1005C0004B0208951F920F920FB60F9211242F9392
:1005D0003F934F935F936F937F938F939F93AF93CB
:1005E000BF93CF93EF93FF938091690280FF3DC04B
:1005F0008091EC018436D8F4C091EC0181E08C0F3D
:100600008093EC0180E090EB0E944B02EC2FF0E035
:10061000E659FD4F80832091EC0130E080916A0221
:1006200090E00396281739070CF440C00FC088E00B
:1006300092E80E944B02809169028E7F809369024A
:100640008091690284608093690230C088E092E8FA
:100650000E944B02809169028E7F80936902809193
:10066000690284608093690221C08091690281FFE0
:100670001DC0E091EC01F0E0E659FD4F808190E073
:10068000986B0E944B028091EC0181110AC080910D
:1006900069028D7F8093690288E092E80E944B0294
:1006A00005C08091EC0181508093EC01FF91EF91A6
:1006B000CF91BF91AF919F918F917F916F915F91FA
:1006C0004F913F912F910F900FBE0F901F90189553
:1006D0008091690282FD1DC08091690281FD1BC06D
:1006E0008091690280FD19C088EC92E80E944B025B
:1006F00081E89AEC0E944B0283E89AEC0E944B023C
:100700001092EC018091690281608093690280E01F
:10071000089581E0089582E0089583E00895CF92DE
:10072000DF92EF92FF920F931F93CF93DF93EC0131
:1007300010916A029091690290FD4DC0809169020A
:1007400082FF4BC0153658F4E12EF12CC7010196FB
:100750006C0120E030E000E080E090E008C018820A
:10076000809169028B7F8093690280E039C0F90132
:10077000E659FD4F60810E9464020F5F202F30E038
:100780002C153D05A4F3F901E659FD4F20810F5FBB
:10079000E02FF0E0E659FD4F408130E0342B4091EE
:1007A00069024B7F4093690228173907C1F41E1470
:1007B0001F0464F4EBE6F2E0DE01212F30E025595E
:1007C0003D4F91919D93E217F307D9F7C10FD11DCA
:1007D0001882812F05C08FEF03C08EEF01C080E02B
:1007E000DF91CF911F910F91FF90EF90DF90CF900D
:1007F00008959093C5008093C40088E98093C10058
:1008000086E08093C2000895E0ECF0E0908195FFCF
:10081000FDCF8093C6000895CF93DF93EC018881CC
:10082000882331F021960E94040489918111FBCF25
:10083000DF91CF9108951F920F920FB60F9211245E
:100840008F93EF93FF938091C600E091ED01F0E06C
:10085000E852FD4F80838A3009F049C08091D80268
:100860008F3451F48091D9028B3431F48091EE01B0
:1008700081608093EE0138C08091D802853471F494
:100880008091D902823551F48091DC02823531F4B5
:100890008091EE0182608093EE0126C08091D902A2
:1008A0008C3251F48091DB028F3431F48091EF016E
:1008B0008F5F8093EF0118C08091D9028C3251F480
:1008C0008091DB028C3431F48091EF018150809370
:1008D000EF010AC08091D802833531F48091DD02A6
:1008E0008F3411F48091EE011092ED0113C080322B
:1008F00061F48091D8028E3369F48091EE018460B6
:100900008093EE011092ED0105C08091ED018F5FA3
:100910008093ED01FF91EF918F910F900FBE0F909B
:100920001F901895A1E21A2EAA1BBB1BFD010DC03A
:10093000AA1FBB1FEE1FFF1FA217B307E407F5078F
:1009400020F0A21BB30BE40BF50B661F771F881F6B
:10095000991F1A9469F760957095809590959B0101
:10096000AC01BD01CF010895052E97FB1EF4009444
:100970000E94CB0457FD07D00E94920407FC03D0CD
:100980004EF40C94CB0450954095309521953F4FF3
:100990004F4F5F4F089590958095709561957F4F6B
:1009A0008F4F9F4F0895AEE0B0E0E9EDF4E00C9476
:1009B00082070D891E8986E08C831A8309838FEF55
:1009C0009FE79E838D83AE01475E5F4F6F89788D71
:1009D000CE0101960E94F6042F813885F801E20FBE
:1009E000F31F10822E96E4E00C949E07ACE0B0E07A
:1009F000ECEFF4E00C9474077C016B018A01FC01BC
:100A000017821682838181FFBDC1CE0101964C0100
:100A1000F7019381F60193FD859193FF81916F0119
:100A2000882309F4ABC1853239F493FD859193FF96
:100A300081916F01853229F4B70190E00E94DE06B2
:100A4000E7CF512C312C20E02032A0F48B3269F01A
:100A500030F4803259F0833269F420612CC08D3239
:100A600039F0803339F4216026C02260246023C02D
:100A7000286021C027FD27C030ED380F3A3078F4C8
:100A800026FF06C0FAE05F9E300D1124532E13C0DE
:100A90008AE0389E300D1124332E20620CC08E3235
:100AA00021F426FD6BC1206406C08C3611F4206849
:100AB00002C0883641F4F60193FD859193FF819140
:100AC0006F018111C1CF982F9F7D9554933028F4E9
:100AD0000C5F1F4FFFE3F9830DC0833631F083377E
:100AE00071F0833509F05BC022C0F80180818983F1
:100AF0000E5F1F4F44244394512C540115C03801FC
:100B0000F2E06F0E711CF801A080B18026FF03C0D7
:100B1000652D70E002C06FEF7FEFC5012C870E944A
:100B2000D3062C0183012C852F77222E17C0380184
:100B3000F2E06F0E711CF801A080B18026FF03C0A7
:100B4000652D70E002C06FEF7FEFC5012C870E941A
:100B5000C8062C012C852068222E830123FC1BC093
:100B6000832D90E048165906B0F4B70180E290E07A
:100B70000E94DE063A94F4CFF50127FC859127FE0A
:100B800081915F01B70190E00E94DE0631103A9436
:100B9000F1E04F1A51084114510471F7E5C0843651
:100BA00011F0893639F5F80127FF07C0608171819E
:100BB000828193810C5F1F4F08C060817181072E75
:100BC000000C880B990B0E5F1F4F2F76722E97FF2C
:100BD00009C090958095709561957F4F8F4F9F4F7D
:100BE0002068722E2AE030E0A4010E941607A82E89
:100BF000A81844C0853729F42F7EB22E2AE030E0B1
:100C000025C0F22FF97FBF2E8F36C1F018F488353A
:100C100079F0B4C0803719F0883721F0AFC02F2F9A
:100C20002061B22EB4FE0DC08B2D8460B82E09C099
:100C300024FF0AC09F2F9660B92E06C028E030E03E
:100C400005C020E130E002C020E132E0F801B7FE4B
:100C500007C060817181828193810C5F1F4F06C044
:100C60006081718180E090E00E5F1F4FA4010E94BF
:100C70001607A82EA818FB2DFF777F2E76FE0BC037
:100C8000372D3E7FA51450F474FE0AC072FC08C0D4
:100C9000372D3E7E05C0BA2C372D03C0BA2C01C0BB
:100CA000B52C34FF0DC0FE01EA0DF11D80818033AB
:100CB00011F4397E09C032FF06C0B394B39404C066
:100CC000832F867809F0B39433FD13C030FF06C03C
:100CD0005A2CB31418F4530C5B18B32CB31468F4E7
:100CE000B70180E290E03C870E94DE06B3943C8529
:100CF000F5CFB31410F43B1801C0312C34FF12C0EF
:100D0000B70180E390E03C870E94DE063C8532FF1D
:100D100017C031FD03C088E790E002C088E590E08D
:100D2000B7010CC0832F867859F031FF02C08BE2E7
:100D300001C080E237FD8DE2B70190E00E94DE063F
:100D4000A51438F4B70180E390E00E94DE065A94BF
:100D5000F7CFAA94F401EA0DF11D8081B70190E06C
:100D60000E94DE06A110F5CF332009F451CEB70161
:100D700080E290E00E94DE063A94F6CFF701868189
:100D8000978102C08FEF9FEF2C96E2E10C949007C1
:100D9000FC010590615070400110D8F78095909546
:100DA0008E0F9F1F0895FC0161507040019001104B
:100DB000D8F7809590958E0F9F1F08950F931F93DE
:100DC000CF93DF93FB01238121FD03C08FEF9FEFC2
:100DD00028C022FF16C046815781248135814217E1
:100DE000530744F4A081B1819D012F5F3F4F3183B0
:100DF00020838C93268137812F5F3F4F3783268353
:100E000010C0EB01092F182F0084F185E02D099502
:100E1000892BE1F68E819F8101969F838E83812F9E
:100E2000902FDF91CF911F910F910895FA01AA277A
:100E3000283051F1203181F1E8946F936E7F6E5F1D
:100E40007F4F8F4F9F4FAF4FB1E03ED0B4E03CD0CB
:100E5000670F781F891F9A1FA11D680F791F8A1FAE
:100E6000911DA11D6A0F711D811D911DA11D20D015
:100E700009F468943F912AE0269F11243019305DCF
:100E80003193DEF6CF010895462F4770405D4193C0
:100E9000B3E00FD0C9F7F6CF462F4F70405D4A330D
:100EA00018F0495D31FD4052419302D0A9F7EACFD5
:100EB000B4E0A6959795879577956795BA95C9F704
:100EC00000976105710508959B01AC010A2E0694F7
:100ED0005795479537952795BA95C9F7620F731FB0
:100EE000841F951FA01D08952F923F924F925F92ED
:100EF0006F927F928F929F92AF92BF92CF92DF922A
:100F0000EF92FF920F931F93CF93DF93CDB7DEB78E
:100F1000CA1BDB0B0FB6F894DEBF0FBECDBF099422
:100F20002A88398848885F846E847D848C849B8479
:100F3000AA84B984C884DF80EE80FD800C811B8187
:100F4000AA81B981CE0FD11D0FB6F894DEBF0FBEB6
:0A0F5000CDBFED010895F894FFCF26
:100F5A00636F6E6E74657374004352432843484549
:100F6A00434B53554D29204552524F520041540D7F
:100F7A000A0041542B5253540D0A00415445310D75
:100F8A000A0041542B4357444843503D322C310DFB
:100F9A000A0041542B43574D4F44453D310D0A0039
:100FAA0041542B43574A41503D22004254487562EE
:100FBA00342D465046320032633265353337663552
:100FCA003800220D0A0041542B4349504D55583DD3
:100FDA00300D0A0041542B43495053544152543D59
:100FEA0022554450222C22003139322E3136382EE5
:100FFA00312E32353500222C003130313000256453
:10100A000041542B43495053454E443D0041542B13
:10101A004349504D55583D310D0A0041542B43491F
:10102A00505345525645523D312C0041542B4349A9
:0C103A00505345525645523D300D0A00FF
:00000001FF
