:100000000C9434000C94C3020C9451000C945100D5
:100010000C9451000C9451000C9451000C9451001C
:100020000C9451000C9451000C9451000C9451000C
:100030000C9451000C94F1010C9451000C9451005B
:100040000C9451000C9451000C94FC030C9451003E
:100050000C9451000C9451000C9451000C945100DC
:100060000C9451000C94510011241FBECFEFD8E026
:10007000DEBFCDBF11E0A0E0B1E0ECE1FFE002C0E7
:1000800005900D92AC3BB107D9F723E0ACEBB1E0A2
:1000900001C01D92AB30B207E1F70E9495010C94AC
:1000A0008C070C94000084E191E00E94ED03089518
:1000B0008091BE0180FD08C08091BE0181FD04C019
:1000C0008091BE0182FFF4CF08958091BE018E7FA2
:1000D0008093BE018091BE018D7F8093BE0180918F
:1000E000BE018B7F8093BE011092BD010E94530020
:1000F0000E9458008091BE018E7F8093BE01809146
:10010000BE018D7F8093BE018091BE018B7F809365
:10011000BE0182E291E00E94ED030E9458008091AE
:10012000BE018E7F8093BE018091BE018D7F809342
:10013000BE018091BE018B7F8093BE0189E291E078
:100140000E94ED030E9458008091BE018E7F809333
:10015000BE018091BE018D7F8093BE018091BE0162
:100160008B7F8093BE018091BE018D7F8093BE0105
:1001700087E391E00E94ED0385E491E00E94ED03A6
:1001800084E691E00E94ED0385E491E00E94ED0396
:1001900082E491E00E94ED030E9458008091BE012C
:1001A00081FF07C08091BE018D7F8093BE0182E0F8
:1001B00008958091BE018E7F8093BE0186E491E018
:1001C0000E94ED030E9458008091BE018E7F8093B3
:1001D000BE018091BE018D7F8093BE018091BE01E2
:1001E0008B7F8093BE0184E591E00E94ED0388E659
:1001F00091E00E94ED0386E791E00E94ED0389E71C
:1002000091E00E94ED0383E491E00E94ED030E94DF
:1002100058008091BE0181FF11C08091BE018E7F88
:100220008093BE018091BE018D7F8093BE0180913D
:10023000BE018B7F8093BE0181E008958091BE0155
:100240008E7F8093BE018091BE018D7F8093BE0121
:100250008091BE018B7F8093BE0180E00895EF9274
:10026000FF920F931F93CF93DF9300D000D0CDB7B1
:10027000DEB78C01FC0101900020E9F73197E81B03
:10028000F90BFF93EF938EE791E09F938F93CE014D
:1002900001967C019F938F930E94B40481E891E0C2
:1002A0000E94ED03C7010E94ED0383E491E00E94E8
:1002B000ED030F900F900F900F900F900F90909173
:1002C000BE0192FD04C09091BE0191FFF8CF8091D4
:1002D000BE0182FF04C0C8010E94ED030BC08091E3
:1002E000BE0181FF07C08091BE018D7F8093BE015A
:1002F00081E010C08091BE018E7F8093BE0180910D
:10030000BE018D7F8093BE018091BE018B7F809363
:10031000BE0180E00F900F900F900F90DF91CF9172
:100320001F910F91FF90EF9008952FEF8FE794E0CA
:10033000215080409040E1F700C0000081E084B986
:1003400095E09093810080936F000E94030280E10A
:100350000E945E0288EE93E00E947B0280E895E2B4
:100360000E948B0244E061E084E00E94640267E046
:1003700080E00E94B6020E94B10280E090E00E94FC
:100380002C0287E79CEC0E942C02789487E090E096
:100390000E94DA030E94650081EC809364008091E2
:1003A0003802877011F40E9449038091380282FF5D
:1003B000F6CF80EC91E00E9470038E3F48F460E03D
:1003C00070E080EC91E00E942F011092D001E7CF05
:1003D0008111E5CF60E070E080E091E00E942F01A4
:1003E000DECF1F920F920FB60F9211248F939F931F
:1003F00095B181E0892785B99F918F910F900FBEAC
:100400000F901F90189584B18C6284B924982A9A11
:100410002C9A2FEF8FE794E0215080409040E1F735
:1004200000C00000809138028E7F80933802809156
:1004300038028D7F80933802809138028B7F8093C1
:1004400038025298E9E6F0E080818D7F80838081D8
:100450008E7F8083E89A0895AC012A9890E120E08D
:1004600030E0552314F42B9A01C02B98220F331F30
:100470001C9921602D9A440F551F000000002D98F3
:10048000915079F72A9AC901089570E0762F66276E
:1004900028E030E0AB014827592755233CF4880F6A
:1004A000991F41E2842740E1942702C0880F991FD9
:1004B000660F771F2150310969F7089590E0876C26
:1004C00090680E942C020895477050E05069637054
:1004D00070E0660F771F660F771F660F771F462B3A
:1004E000572B20E2829FC00111249927842B952B42
:1004F0000E942C0208958036910538F080342FE058
:10050000920728F08FE39FE002C080E690E0906AB7
:100510000E942C020895873922E0920708F19C017D
:10052000283185E1380778F440E050E060E678EA69
:1005300080E090E00E949504C90101978068966C64
:100540000E942C02089540E050E06CEF72E485E0D8
:1005500090E00E947304C9010197966C0E942C02DE
:10056000089580E090EE0E942C020895877090E03C
:10057000986920E1629FB00111247727862B972B81
:100580000E942C0208951F920F920FB60F92112411
:100590002F933F934F935F936F937F938F939F938B
:1005A000AF93BF93CF93EF93FF938091380280FF77
:1005B0003DC08091BC018436D8F4C091BC0181E07B
:1005C0008C0F8093BC0180E090EB0E942C02EC2FFA
:1005D000F0E0E75CFD4F80832091BC0130E080912A
:1005E000390290E00396281739070CF440C00FC079
:1005F00088E092E80E942C02809138028E7F8093DE
:1006000038028091380284608093380230C088E0DC
:1006100092E80E942C02809138028E7F80933802EB
:100620008091380284608093380221C08091380222
:1006300081FF1DC0E091BC01F0E0E75CFD4F8081CF
:1006400090E0986B0E942C028091BC0181110AC03D
:10065000809138028D7F8093380288E092E80E9472
:100660002C0205C08091BC0181508093BC01FF9198
:10067000EF91CF91BF91AF919F918F917F916F91AA
:100680005F914F913F912F910F900FBE0F901F9050
:1006900018958091380282FD1DC08091380281FD3D
:1006A0001BC08091380280FD19C088EC92E80E943E
:1006B0002C0281E89AEC0E942C0283E89AEC0E94BA
:1006C0002C021092BC018091380281608093380224
:1006D00080E0089581E0089582E0089583E0089520
:1006E000CF92DF92EF92FF920F931F93CF93DF93FE
:1006F000EC01109139029091380290FD4DC080912B
:10070000380282FF4BC0153658F4E12EF12CC70198
:1007100001966C0120E030E000E080E090E008C04D
:100720001882809138028B7F8093380280E039C034
:10073000F901E75CFD4F60810E9445020F5F202FA9
:1007400030E02C153D05A4F3F901E75CFD4F208155
:100750000F5FE02FF0E0E75CFD4F408130E0342B8D
:10076000409138024B7F4093380228173907C1F473
:100770001E141F0464F4EAE3F2E0DE01212F30E0EE
:10078000265C3D4F91919D93E217F307D9F7C10F76
:10079000D11D1882812F05C08FEF03C08EEF01C0DD
:1007A00080E0DF91CF911F910F91FF90EF90DF904C
:1007B000CF9008959093C5008093C40088E98093FA
:1007C000C10086E08093C2000895E0ECF0E09081E3
:1007D00095FFFDCF8093C6000895CF93DF93EC0182
:1007E0008881882331F021960E94E5038991811147
:1007F000FBCFDF91CF9108951F920F920FB60F920A
:1008000011248F93EF93FF938091C600E091BD0177
:10081000F0E0E955FD4F80838A3009F049C08091AE
:10082000A7028F3451F48091A8028B3431F4809167
:10083000BE0181608093BE0138C08091A7028534DB
:1008400071F48091A802823551F48091AB02823517
:1008500031F48091BE0182608093BE0126C08091F8
:10086000A8028C3251F48091AA028F3431F4809125
:10087000BF018F5F8093BF0118C08091A8028C32A6
:1008800051F48091AA028C3431F48091BF018150DF
:100890008093BF010AC08091A702833531F4809113
:1008A000AC028F3411F48091BE011092BD0113C0CF
:1008B000803261F48091A7028E3369F48091BE0189
:1008C00084608093BE011092BD0105C08091BD017E
:1008D0008F5F8093BD01FF91EF918F910F900FBEBD
:1008E0000F901F901895A1E21A2EAA1BBB1BFD01A9
:1008F0000DC0AA1FBB1FEE1FFF1FA217B307E407FF
:10090000F50720F0A21BB30BE40BF50B661F771F56
:10091000881F991F1A9469F7609570958095909536
:100920009B01AC01BD01CF010895052E97FB1EF47C
:1009300000940E94AC0457FD07D00E94730407FC8A
:1009400003D04EF40C94AC0450954095309521950D
:100950003F4F4F4F5F4F08959095809570956195EB
:100960007F4F8F4F9F4F0895AEE0B0E0EAEBF4E089
:100970000C9463070D891E8986E08C831A83098392
:100980008FEF9FE79E838D83AE01475E5F4F6F8938
:10099000788DCE0101960E94D7042F813885F80109
:1009A000E20FF31F10822E96E4E00C947F07ACE078
:1009B000B0E0EDEDF4E00C9455077C016B018A0189
:1009C000FC0117821682838181FFBDC1CE01019691
:1009D0004C01F7019381F60193FD859193FF81917D
:1009E0006F01882309F4ABC1853239F493FD8591F9
:1009F00093FF81916F01853229F4B70190E00E9445
:100A0000BF06E7CF512C312C20E02032A0F48B32EE
:100A100069F030F4803259F0833269F420612CC0DF
:100A20008D3239F0803339F4216026C02260246091
:100A300023C0286021C027FD27C030ED380F3A3091
:100A400078F426FF06C0FAE05F9E300D1124532E85
:100A500013C08AE0389E300D1124332E20620CC062
:100A60008E3221F426FD6BC1206406C08C3611F451
:100A7000206802C0883641F4F60193FD859193FF0A
:100A800081916F018111C1CF982F9F7D9554933033
:100A900028F40C5F1F4FFFE3F9830DC0833631F05C
:100AA000833771F0833509F05BC022C0F801808183
:100AB00089830E5F1F4F44244394512C540115C069
:100AC0003801F2E06F0E711CF801A080B18026FFA2
:100AD00003C0652D70E002C06FEF7FEFC5012C876A
:100AE0000E94B4062C0183012C852F77222E17C07B
:100AF0003801F2E06F0E711CF801A080B18026FF72
:100B000003C0652D70E002C06FEF7FEFC5012C8739
:100B10000E94A9062C012C852068222E830123FC2B
:100B20001BC0832D90E048165906B0F4B70180E24F
:100B300090E00E94BF063A94F4CFF50127FC85911E
:100B400027FE81915F01B70190E00E94BF0631103E
:100B50003A94F1E04F1A51084114510471F7E5C07D
:100B6000843611F0893639F5F80127FF07C0608116
:100B70007181828193810C5F1F4F08C060817181F8
:100B8000072E000C880B990B0E5F1F4F2F76722ECD
:100B900097FF09C090958095709561957F4F8F4F15
:100BA0009F4F2068722E2AE030E0A4010E94F706D1
:100BB000A82EA81844C0853729F42F7EB22E2AE02B
:100BC00030E025C0F22FF97FBF2E8F36C1F018F428
:100BD000883579F0B4C0803719F0883721F0AFC07C
:100BE0002F2F2061B22EB4FE0DC08B2D8460B82E45
:100BF00009C024FF0AC09F2F9660B92E06C028E0C6
:100C000030E005C020E130E002C020E132E0F80130
:100C1000B7FE07C060817181828193810C5F1F4F95
:100C200006C06081718180E090E00E5F1F4FA401DB
:100C30000E94F706A82EA818FB2DFF777F2E76FEC0
:100C40000BC0372D3E7FA51450F474FE0AC072FC11
:100C500008C0372D3E7E05C0BA2C372D03C0BA2CF4
:100C600001C0B52C34FF0DC0FE01EA0DF11D8081DD
:100C7000803311F4397E09C032FF06C0B394B394B7
:100C800004C0832F867809F0B39433FD13C030FF7E
:100C900006C05A2CB31418F4530C5B18B32CB314BD
:100CA00068F4B70180E290E03C870E94BF06B394ED
:100CB0003C85F5CFB31410F43B1801C0312C34FF40
:100CC00012C0B70180E390E03C870E94BF063C85DC
:100CD00032FF17C031FD03C088E790E002C088E50D
:100CE00090E0B7010CC0832F867859F031FF02C025
:100CF0008BE201C080E237FD8DE2B70190E00E94F7
:100D0000BF06A51438F4B70180E390E00E94BF0647
:100D10005A94F7CFAA94F401EA0DF11D8081B7012E
:100D200090E00E94BF06A110F5CF332009F451CE08
:100D3000B70180E290E00E94BF063A94F6CFF70137
:100D40008681978102C08FEF9FEF2C96E2E10C9491
:100D50007107FC010590615070400110D8F7809533
:100D600090958E0F9F1F0895FC0161507040019077
:100D70000110D8F7809590958E0F9F1F08950F93BF
:100D80001F93CF93DF93FB01238121FD03C08FEFDE
:100D90009FEF28C022FF16C04681578124813581EC
:100DA0004217530744F4A081B1819D012F5F3F4F4B
:100DB000318320838C93268137812F5F3F4F378388
:100DC000268310C0EB01092F182F0084F185E02D38
:100DD0000995892BE1F68E819F8101969F838E83F1
:100DE000812F902FDF91CF911F910F910895FA01DC
:100DF000AA27283051F1203181F1E8946F936E7F5A
:100E00006E5F7F4F8F4F9F4FAF4FB1E03ED0B4E04A
:100E10003CD0670F781F891F9A1FA11D680F791F8B
:100E20008A1F911DA11D6A0F711D811D911DA11D9C
:100E300020D009F468943F912AE0269F11243019AC
:100E4000305D3193DEF6CF010895462F4770405D47
:100E50004193B3E00FD0C9F7F6CF462F4F70405DF6
:100E60004A3318F0495D31FD4052419302D0A9F751
:100E7000EACFB4E0A6959795879577956795BA954B
:100E8000C9F700976105710508959B01AC010A2E11
:100E900006945795479537952795BA95C9F7620FE8
:100EA000731F841F951FA01D08952F923F924F928C
:100EB0005F926F927F928F929F92AF92BF92CF92EA
:100EC000DF92EF92FF920F931F93CF93DF93CDB7F3
:100ED000DEB7CA1BDB0B0FB6F894DEBF0FBECDBF6B
:100EE00009942A88398848885F846E847D848C843C
:100EF0009B84AA84B984C884DF80EE80FD800C8145
:100F00001B81AA81B981CE0FD11D0FB6F894DEBF27
:0C0F10000FBECDBFED010895F894FFCF97
:100F1C0043524328434845434B53554D2920455292
:100F2C00524F520041540D0A0041542B5253540D50
:100F3C000A00415445310D0A0041542B43574D4F83
:100F4C0044453D310D0A0041542B43574A41503D15
:100F5C002200220D0A0041542B4349504D55583D57
:100F6C00300D0A0041542B43495053544152543DC7
:100F7C0022554450222C22003139322E3136382E53
:100F8C00312E32353500222C0031303130002564C1
:100F9C000041542B43495053454E443D0041542B82
:100FAC004349504D55583D310D0A0041542B43498E
:100FBC00505345525645523D312C0041542B434918
:0C0FCC00505345525645523D300D0A006E
:00000001FF
