S010000052656365697665722E73726563DF
S11300000C9434000C947A020C9451000C9451001A
S11300100C9451000C9451000C9451000C94510018
S11300200C9451000C9451000C9451000C94510008
S11300300C9451000C94A9010C9451000C9451009F
S11300400C9451000C9451000C94B3030C94510083
S11300500C9451000C9451000C9451000C945100D8
S11300600C9451000C94510011241FBECFEFD8E022
S1130070DEBFCDBF11E0A0E0B1E0E2E5FEE002C0EA
S113008005900D92AE3FB107D9F722E0AEEFB1E093
S113009001C01D92AF3EB207E1F70E9439010C94F2
S11300A027070C9400008FE291E00E94A4030895B6
S11300B0EFEFF1E08081811106C08181811103C0DD
S11300C082818823B9F30895CF93DF93CFEFD1E0F2
S11300D0188219821A820E9453000E9458001882C2
S11300E019821A828DE391E00E94A4030E945800B1
S11300F0188219821A8284E491E00E94A4030E9467
S11301005800188219821A8284E591E00E94A4039F
S11301100E945800188219821A82198282E691E09C
S11301200E94A4038DE691E00E94A40386EA91E074
S11301300E94A40389E791E00E94A40384E891E06B
S11301400E94A4030E9458008981813021F41092F6
S1130150000282E026C0CFEFD1E0188288E891E067
S11301600E94A4030E945800188219821A8286E908
S113017091E00E94A4038AEA91E00E94A40388EB20
S113018091E00E94A4038BEB91E00E94A40385E814
S113019091E00E94A4030E945800188219821A82D6
S11301A080E0DF91CF910895EF92FF920F931F9318
S11301B0CF93DF9300D000D0CDB7DEB78C01FC0124
S11301C001900020E9F73197E81BF90BFF93EF93B7
S11301D080EC91E09F938F93CE0101967C019F93D5
S11301E08F930E944F0483EC91E00E94A403C70103
S11301F00E94A40385E891E00E94A4030F900F904D
S11302000F900F900F900F90EFEFF1E0928191110A
S113021003C091819923D1F380910102813021F4AB
S1130220C8010E94A40308C080910002882321F021
S11302301092000281E006C0EFEFF1E0108211821B
S1130240128280E00F900F900F900F90DF91CF916A
S11302501F910F91FF90EF900895299A2FEF8FEF40
S11302609CE2215080409040E1F700C000002998B2
S113027008952FEF8FEF9CE2215080409040E1F7EA
S113028000C00000219A85E08093810081E0809382
S11302906F000E94BA0180E10E94150288EE93E08B
S11302A00E94320280E895E20E94420244E061E04A
S11302B084E00E941B0267E080E00E946D020E94BD
S11302C0680280E090E00E94E30187E79CEC0E94D2
S11302D0E301789487E090E00E9491030E94640017
S11302E081EC8093640060E070E080E091E00E9423
S11302F0D40080917C028D3040F060E070E080E0BA
S113030091E00E94D40010927C0280917D0287705B
S113031011F40E94000380917D0282FFEACF84E001
S113032092E00E9427038E3F58F40E942D0160E062
S113033070E084E092E00E94D40010921402D9CFBD
S11303408111D7CF60E070E089E091E00E94D40091
S1130350D0CF1F920F920FB60F9211248F938091DA
S11303607C028F5F80937C028F910F900FBE0F9061
S11303701F90189584B18C6284B924982A9A2C9A77
S11303802FEF8FE794E0215080409040E1F700C0C8
S1130390000080917D028E7F80937D0280917D029A
S11303A08D7F80937D0280917D028B7F80937D027F
S11303B05298E9E6F0E080818D7F808380818E7F92
S11303C08083E89A0895AC012A9890E120E030E017
S11303D0552314F42B9A01C02B98220F331F1C9918
S11303E021602D9A440F551F000000002D98915054
S11303F079F72A9AC901089570E0762F662728E0D4
S113040030E0AB014827592755233CF4880F991F46
S113041041E2842740E1942702C0880F991F660FA8
S1130420771F2150310969F7089590E0876C90682F
S11304300E94E3010895477050E05069637070E0D2
S1130440660F771F660F771F660F771F462B572B94
S113045020E2829FC00111249927842B952B0E94AE
S1130460E30108958036910538F080342FE0920737
S113047028F08FE39FE002C080E690E0906A0E943B
S1130480E3010895873922E0920708F19C0128319D
S113049085E1380778F440E050E060E678EA80E0EF
S11304A090E00E943004C90101978068966C0E9414
S11304B0E301089540E050E06CEF72E485E090E0E1
S11304C00E940E04C9010197966C0E94E3010895ED
S11304D080E090EE0E94E3010895877090E09869AF
S11304E020E1629FB00111247727862B972B0E946D
S11304F0E30108951F920F920FB60F9211242F93C8
S11305003F934F935F936F937F938F939F93AF9397
S1130510BF93CF93EF93FF9380917D0280FF3DC003
S11305208091FE018436D8F4C091FE0181E08C0FE5
S11305308093FE0180E090EB0E94E301EC2FF0E059
S1130540E258FD4F80832091FE0130E080917E02CD
S113055090E00396281739070CF440C00FC088E0D8
S113056092E80E94E30180917D028E7F80937D0258
S113057080917D02846080937D0230C088E092E89F
S11305800E94E30180917D028E7F80937D028091A1
S11305907D02846080937D0221C080917D0281FF71
S11305A01DC0E091FE01F0E0E258FD4F808190E033
S11305B0986B0E94E3018091FE0181110AC0809131
S11305C07D028D7F80937D0288E092E80E94E301A2
S11305D005C08091FE0181508093FE01FF91EF914F
S11305E0CF91BF91AF919F918F917F916F915F91C7
S11305F04F913F912F910F900FBE0F901F90189520
S113060080917D0282FD1DC080917D0281FD1BC011
S113061080917D0280FD19C088EC92E80E94E3017C
S113062081E89AEC0E94E30183E89AEC0E94E301DA
S11306301092FE0180917D02816080937D0280E0B2
S1130640089581E0089582E0089583E00895CF92AB
S1130650DF92EF92FF920F931F93CF93DF93EC01FE
S113066010917E0290917D0290FD4DC080917D029B
S113067082FF4BC0153658F4E12EF12CC7010196C8
S11306806C0120E030E000E080E090E008C01882D7
S113069080917D028B7F80937D0280E039C0F901D7
S11306A0E258FD4F60810E94FC010F5F202F30E073
S11306B02C153D05A4F3F901E258FD4F20810F5F8D
S11306C0E02FF0E0E258FD4F408130E0342B4091C0
S11306D07D024B7F40937D0228173907C1F41E1415
S11306E01F0464F4EFE7F2E0DE01212F30E021582B
S11306F03D4F91919D93E217F307D9F7C10FD11D97
S11307001882812F05C08FEF03C08EEF01C080E0F7
S1130710DF91CF911F910F91FF90EF90DF90CF90D9
S113072008959093C5008093C40088E98093C10024
S113073086E08093C2000895E0ECF0E0908195FF9C
S1130740FDCF8093C6000895CF93DF93EC01888199
S1130750882331F021960E949C0389918111FBCF5B
S1130760DF91CF9108951F920F920FB60F9211242B
S11307708F939F93AF93BF93EF93FF938091C600A2
S11307809091EC0291111CC0853461F48DE191E0EB
S11307909093EE028093ED028091EC028F5F809340
S11307A0EC0231C08F3479F586E291E09093EE0249
S11307B08093ED028091EC028F5F8093EC0223C062
S11307C0E091ED02F091EE029091EC02DF01A90FAD
S11307D0B11D9C91981315C08091EC028F5F80939A
S11307E0EC028091EC02DF01A80FB11D8C91811104
S11307F00AC00780F085E02D81E080831092EC022E
S113080002C01092EC02FF91EF91BF91AF919F91C2
S11308108F910F900FBE0F901F901895A1E21A2E82
S1130820AA1BBB1BFD010DC0AA1FBB1FEE1FFF1F90
S1130830A217B307E407F50720F0A21BB30BE40BE0
S1130840F50B661F771F881F991F1A9469F7609527
S11308507095809590959B01AC01BD01CF010895E1
S1130860052E97FB1EF400940E94470457FD07D001
S11308700E940E0407FC03D04EF40C9447045095D8
S11308804095309521953F4F4F4F5F4F0895909578
S11308908095709561957F4F8F4F9F4F0895AEE07F
S11308A0B0E0E5E5F4E00C94FE060D891E8986E0CF
S11308B08C831A8309838FEF9FE79E838D83AE0118
S11308C0475E5F4F6F89788DCE0101960E94720456
S11308D02F813885F801E20FF31F10822E96E4E091
S11308E00C941A07ACE0B0E0E8E7F4E00C94F006EE
S11308F07C016B018A01FC0117821682838181FFCE
S1130900BDC1CE0101964C01F7019381F60193FD1F
S1130910859193FF81916F01882309F4ABC18532DE
S113092039F493FD859193FF81916F01853229F408
S1130930B70190E00E945A06E7CF512C312C20E0F9
S11309402032A0F48B3269F030F4803259F08332D3
S113095069F420612CC08D3239F0803339F4216080
S113096026C02260246023C0286021C027FD27C040
S113097030ED380F3A3078F426FF06C0FAE05F9E77
S1130980300D1124532E13C08AE0389E300D1124EB
S1130990332E20620CC08E3221F426FD6BC12064FC
S11309A006C08C3611F4206802C0883641F4F60182
S11309B093FD859193FF81916F018111C1CF982F90
S11309C09F7D9554933028F40C5F1F4FFFE3F98308
S11309D00DC0833631F0833771F0833509F05BC085
S11309E022C0F801808189830E5F1F4F4424439401
S11309F0512C540115C03801F2E06F0E711CF8013E
S1130A00A080B18026FF03C0652D70E002C06FEFA7
S1130A107FEFC5012C870E944F062C0183012C8592
S1130A202F77222E17C03801F2E06F0E711CF801E7
S1130A30A080B18026FF03C0652D70E002C06FEF77
S1130A407FEFC5012C870E9444062C012C85206869
S1130A50222E830123FC1BC0832D90E048165906E7
S1130A60B0F4B70180E290E00E945A063A94F4CFC1
S1130A70F50127FC859127FE81915F01B70190E084
S1130A800E945A0631103A94F1E04F1A5108411469
S1130A90510471F7E5C0843611F0893639F5F8014F
S1130AA027FF07C060817181828193810C5F1F4F92
S1130AB008C060817181072E000C880B990B0E5FB2
S1130AC01F4F2F76722E97FF09C0909580957095D1
S1130AD061957F4F8F4F9F4F2068722E2AE030E040
S1130AE0A4010E949206A82EA81844C0853729F4B0
S1130AF02F7EB22E2AE030E025C0F22FF97FBF2EE0
S1130B008F36C1F018F4883579F0B4C0803719F005
S1130B10883721F0AFC02F2F2061B22EB4FE0DC054
S1130B208B2D8460B82E09C024FF0AC09F2F9660C5
S1130B30B92E06C028E030E005C020E130E002C054
S1130B4020E132E0F801B7FE07C060817181828143
S1130B5093810C5F1F4F06C06081718180E090E03B
S1130B600E5F1F4FA4010E949206A82EA818FB2D09
S1130B70FF777F2E76FE0BC0372D3E7FA51450F4F1
S1130B8074FE0AC072FC08C0372D3E7E05C0BA2C24
S1130B90372D03C0BA2C01C0B52C34FF0DC0FE01A3
S1130BA0EA0DF11D8081803311F4397E09C032FFD2
S1130BB006C0B394B39404C0832F867809F0B39429
S1130BC033FD13C030FF06C05A2CB31418F4530C71
S1130BD05B18B32CB31468F4B70180E290E03C874F
S1130BE00E945A06B3943C85F5CFB31410F43B1815
S1130BF001C0312C34FF12C0B70180E390E03C8780
S1130C000E945A063C8532FF17C031FD03C088E7B5
S1130C1090E002C088E590E0B7010CC0832F86788D
S1130C2059F031FF02C08BE201C080E237FD8DE252
S1130C30B70190E00E945A06A51438F4B70180E386
S1130C4090E00E945A065A94F7CFAA94F401EA0D50
S1130C50F11D8081B70190E00E945A06A110F5CFE2
S1130C60332009F451CEB70180E290E00E945A0685
S1130C703A94F6CFF7018681978102C08FEF9FEFF8
S1130C802C96E2E10C940C07FC0105906150704035
S1130C900110D8F7809590958E0F9F1F0895FC0141
S1130CA06150704001900110D8F7809590958E0F97
S1130CB09F1F08950F931F93CF93DF93FB0123810D
S1130CC021FD03C08FEF9FEF28C022FF16C046818D
S1130CD05781248135814217530744F4A081B1819F
S1130CE09D012F5F3F4F318320838C932681378171
S1130CF02F5F3F4F3783268310C0EB01092F182F36
S1130D000084F185E02D0995892BE1F68E819F8180
S1130D1001969F838E83812F902FDF91CF911F9116
S1130D200F910895FA01AA27283051F1203181F159
S1130D30E8946F936E7F6E5F7F4F8F4F9F4FAF4FDF
S1130D40B1E03ED0B4E03CD0670F781F891F9A1FF2
S1130D50A11D680F791F8A1F911DA11D6A0F711DA6
S1130D60811D911DA11D20D009F468943F912AE0B2
S1130D70269F11243019305D3193DEF6CF0108959A
S1130D80462F4770405D4193B3E00FD0C9F7F6CFCB
S1130D90462F4F70405D4A3318F0495D31FD405293
S1130DA0419302D0A9F7EACFB4E0A6959795879529
S1130DB077956795BA95C9F7009761057105089508
S1130DC09B01AC010A2E06945795479537952795B4
S1130DD0BA95C9F7620F731F841F951FA01D08954C
S1130DE02F923F924F925F926F927F928F929F9237
S1130DF0AF92BF92CF92DF92EF92FF920F931F9325
S1130E00CF93DF93CDB7DEB7CA1BDB0B0FB6F894D5
S1130E10DEBF0FBECDBF09942A88398848885F8415
S1130E206E847D848C849B84AA84B984C884DF8086
S1130E30EE80FD800C811B81AA81B981CE0FD11D6A
S1130E400FB6F894DEBF0FBECDBFED010895F89440
S1050E50FFCFCE
S1130E52636F6E6E7465737400435243284348454E
S1130E62434B53554D29204552524F52004552523D
S1130E724F520D0A00024F4B0D0A000000FF0141C0
S1130E82540D0A0041542B5253540D0A0041544547
S1130E92310D0A0041542B4357444843503D322CF0
S1130EA2310D0A0041542B43574D4F44453D310DFA
S1130EB20A0041542B43574A41503D2200425448B0
S1130EC27562342D4650463200326332653533370B
S1130ED266353800220D0A0041542B4349504D55C2
S1130EE2583D300D0A0041542B434950535441524A
S1130EF2543D22554450222C22003139322E3136AF
S1130F02382E312E32353500222C0031303130006A
S1130F1225640041542B43495053454E443D0041FE
S1130F22542B4349504D55583D310D0A0041542B21
S1130F324349505345525645523D312C0041542B9E
S1110F424349505345525645523D300D0A0066
S9030000FC
