S010000052656365697665722E73726563DF
S11300000C9434000C94BE020C9451000C945100D6
S11300100C9451000C9451000C9451000C94510018
S11300200C9451000C9451000C9451000C94510008
S11300300C9451000C94EC010C9451000C9451005C
S11300400C9451000C9451000C94F7030C9451003F
S11300500C9451000C9451000C9451000C945100D8
S11300600C9451000C94510011241FBECFEFD8E022
S1130070DEBFCDBF11E0A0E0B1E0E2E1FFE002C0ED
S113008005900D92A23BB107D9F723E0A2EBB1E0B2
S113009001C01D92A130B207E1F70E9495010C94B2
S11300A087070C94000080E091E00E94E803089523
S11300B08091B40180FD08C08091B40181FD04C029
S11300C08091B40182FFF4CF08958091B4018E7FB2
S11300D08093B4018091B4018D7F8093B4018091A9
S11300E0B4018B7F8093B4011092B3010E9453003A
S11300F00E9458008091B4018E7F8093B401809156
S1130100B4018D7F8093B4018091B4018B7F80937F
S1130110B4018EE091E00E94E8030E9458008091AF
S1130120B4018E7F8093B4018091B4018D7F80935C
S1130130B4018091B4018B7F8093B40185E191E097
S11301400E94E8030E9458008091B4018E7F80933E
S1130150B4018091B4018D7F8093B4018091B40186
S11301608B7F8093B4018091B4018D7F8093B4011F
S113017083E291E00E94E80381E391E00E94E803B6
S113018080E591E00E94E80381E391E00E94E803A6
S11301908EE291E00E94E8030E9458008091B4012D
S11301A081FF07C08091B4018D7F8093B40182E008
S11301B008958091B4018E7F8093B40182E391E02D
S11301C00E94E8030E9458008091B4018E7F8093BE
S11301D0B4018091B4018D7F8093B4018091B40106
S11301E08B7F8093B40180E491E00E94E80384E56E
S11301F091E00E94E80382E691E00E94E80385E62C
S113020091E00E94E8038FE291E00E94E8030E94DB
S113021058008091B40181FF11C08091B4018E7F98
S11302208093B4018091B4018D7F8093B401809157
S1130230B4018B7F8093B40181E008958091B4016F
S11302408E7F8093B4018091B4018D7F8093B4013B
S11302508091B4018B7F8093B40180E00895EF9284
S1130260FF920F931F93CF93DF9300D000D0CDB7AD
S1130270DEB78C01FC0101900020E9F73197E81BFF
S1130280F90BFF93EF938AE691E09F938F93CE014E
S113029001967C019F938F930E94AF048DE691E0B9
S11302A00E94E803C7010E94E8038FE291E00E94E4
S11302B0E8030F900F900F900F900F900F90909174
S11302C0B40192FD04C09091B40191FFF8CF8091E4
S11302D0B40182FF04C0C8010E94E8030BC08091EE
S11302E0B40181FF07C08091B4018D7F8093B40174
S11302F081E010C08091B4018E7F8093B40180911D
S1130300B4018D7F8093B4018091B4018B7F80937D
S1130310B40180E00F900F900F900F90DF91CF9178
S11303201F910F91FF90EF9008952FEF8FEF9CE2B4
S1130330215080409040E1F700C0000081E084B982
S113034095E09093810080936F000E94FE0180E10C
S11303500E94590288EE93E00E94760280E895E2BA
S11303600E94860244E061E084E00E945F0267E04C
S113037080E00E94B1020E94AC0280E090E00E9402
S1130380270287E79CEC0E942702789487E090E09C
S11303900E94D5030E94650080912E02877011F49B
S11303A00E94440380912E0282FFF6CF86EB91E0F7
S11303B00E946B038E3F48F460E070E086EB91E0AE
S11303C00E942F011092C601E7CF8111E5CF88EA80
S11303D091E00E94E803E0CF1F920F920FB60F92B4
S11303E011248F939F9395B181E0892785B99F91BB
S11303F08F910F900FBE0F901F90189584B18C624F
S113040084B924982A9A2C9A2FEF8FE794E02150EC
S113041080409040E1F700C0000080912E028E7F62
S113042080932E0280912E028D7F80932E028091E4
S11304302E028B7F80932E025298E9E6F0E08081B1
S11304408D7F808380818E7F8083E89A0895AC01BC
S11304502A9890E120E030E0552314F42B9A01C04F
S11304602B98220F331F1C9921602D9A440F551F7E
S1130470000000002D98915079F72A9AC901089537
S113048070E0762F662728E030E0AB014827592733
S113049055233CF4880F991F41E2842740E19427B7
S11304A002C0880F991F660F771F2150310969F721
S11304B0089590E0876C90680E9427020895477021
S11304C050E05069637070E0660F771F660F771F06
S11304D0660F771F462B572B20E2829FC001112401
S11304E09927842B952B0E94270208958036910525
S11304F038F080342FE0920728F08FE39FE002C0A9
S113050080E690E0906A0E9427020895873922E0ED
S1130510920708F19C01283185E1380778F440E01E
S113052050E060E678EA80E090E00E949004C9011F
S113053001978068966C0E942702089540E050E07D
S11305406CEF72E485E090E00E946E04C9010197AB
S1130550966C0E942702089580E090EE0E94270284
S11305600895877090E0986920E1629FB00111249A
S11305707727862B972B0E94270208951F920F92AC
S11305800FB60F9211242F933F934F935F936F9362
S11305907F938F939F93AF93BF93CF93EF93FF93E7
S11305A080912E0280FF3DC08091B2018436D8F440
S11305B0C091B20181E08C0F8093B20180E090EB96
S11305C00E942702EC2FF0E0E15DFD4F8083209133
S11305D0B20130E080912F0290E00396281739078A
S11305E00CF440C00FC088E092E80E94270280917A
S11305F02E028E7F80932E0280912E02846080933F
S11306002E0230C088E092E80E94270280912E02D8
S11306108E7F80932E0280912E02846080932E021E
S113062021C080912E0281FF1DC0E091B201F0E053
S1130630E15DFD4F808190E0986B0E9427028091DC
S1130640B20181110AC080912E028D7F80932E0207
S113065088E092E80E94270205C08091B20181508F
S11306608093B201FF91EF91CF91BF91AF919F9190
S11306708F917F916F915F914F913F912F910F9047
S11306800FBE0F901F90189580912E0282FD1DC001
S113069080912E0281FD1BC080912E0280FD19C025
S11306A088EC92E80E94270281E89AEC0E942702D3
S11306B083E89AEC0E9427021092B20180912E02E4
S11306C0816080932E0280E0089581E0089582E0A5
S11306D0089583E00895CF92DF92EF92FF920F93F3
S11306E01F93CF93DF93EC0110912F0290912E0270
S11306F090FD4DC080912E0282FF4BC0153658F4F8
S1130700E12EF12CC70101966C0120E030E000E0FD
S113071080E090E008C0188280912E028B7F809345
S11307202E0280E039C0F901E15DFD4F60810E9435
S113073040020F5F202F30E02C153D05A4F3F90192
S1130740E15DFD4F20810F5FE02FF0E0E15DFD4FA3
S1130750408130E0342B40912E024B7F40932E0297
S113076028173907C1F41E141F0464F4E0E3F2E00F
S1130770DE01212F30E0205D3D4F91919D93E217E2
S1130780F307D9F7C10FD11D1882812F05C08FEF50
S113079003C08EEF01C080E0DF91CF911F910F91D4
S11307A0FF90EF90DF90CF9008959093C5008093D1
S11307B0C40088E98093C10086E08093C200089554
S11307C0E0ECF0E0908195FFFDCF8093C6000895A2
S11307D0CF93DF93EC018881882331F021960E9426
S11307E0E00389918111FBCFDF91CF9108951F928E
S11307F00F920FB60F9211248F93EF93FF93809172
S1130800C600E091B301F0E0E356FD4F80838A30E7
S113081009F049C080919D028F3451F480919E0269
S11308208B3431F48091B40181608093B40138C079
S113083080919D02853471F480919E02823551F439
S11308408091A102823531F48091B4018260809359
S1130850B40126C080919E028C3251F48091A00292
S11308608F3431F48091B5018F5F8093B50118C046
S113087080919E028C3251F48091A0028C3431F428
S11308808091B50181508093B5010AC080919D0289
S1130890833531F48091A2028F3411F48091B40134
S11308A01092B30113C0803261F480919D028E33A3
S11308B069F48091B40184608093B4011092B3010F
S11308C005C08091B3018F5F8093B301FF91EF91D5
S11308D08F910F900FBE0F901F901895A1E21A2EC2
S11308E0AA1BBB1BFD010DC0AA1FBB1FEE1FFF1FD0
S11308F0A217B307E407F50720F0A21BB30BE40B20
S1130900F50B661F771F881F991F1A9469F7609566
S11309107095809590959B01AC01BD01CF01089520
S1130920052E97FB1EF400940E94A70457FD07D0E0
S11309300E946E0407FC03D04EF40C94A704509557
S11309404095309521953F4F4F4F5F4F08959095B7
S11309508095709561957F4F8F4F9F4F0895AEE0BE
S1130960B0E0E5EBF4E00C945E070D891E8986E0A7
S11309708C831A8309838FEF9FE79E838D83AE0157
S1130980475E5F4F6F89788DCE0101960E94D20435
S11309902F813885F801E20FF31F10822E96E4E0D0
S11309A00C947A07ACE0B0E0E8EDF4E00C94500766
S11309B07C016B018A01FC0117821682838181FF0D
S11309C0BDC1CE0101964C01F7019381F60193FD5F
S11309D0859193FF81916F01882309F4ABC185321E
S11309E039F493FD859193FF81916F01853229F448
S11309F0B70190E00E94BA06E7CF512C312C20E0D9
S1130A002032A0F48B3269F030F4803259F0833212
S1130A1069F420612CC08D3239F0803339F42160BF
S1130A2026C02260246023C0286021C027FD27C07F
S1130A3030ED380F3A3078F426FF06C0FAE05F9EB6
S1130A40300D1124532E13C08AE0389E300D11242A
S1130A50332E20620CC08E3221F426FD6BC120643B
S1130A6006C08C3611F4206802C0883641F4F601C1
S1130A7093FD859193FF81916F018111C1CF982FCF
S1130A809F7D9554933028F40C5F1F4FFFE3F98347
S1130A900DC0833631F0833771F0833509F05BC0C4
S1130AA022C0F801808189830E5F1F4F4424439440
S1130AB0512C540115C03801F2E06F0E711CF8017D
S1130AC0A080B18026FF03C0652D70E002C06FEFE7
S1130AD07FEFC5012C870E94AF062C0183012C8572
S1130AE02F77222E17C03801F2E06F0E711CF80127
S1130AF0A080B18026FF03C0652D70E002C06FEFB7
S1130B007FEFC5012C870E94A4062C012C85206848
S1130B10222E830123FC1BC0832D90E04816590626
S1130B20B0F4B70180E290E00E94BA063A94F4CFA0
S1130B30F50127FC859127FE81915F01B70190E0C3
S1130B400E94BA0631103A94F1E04F1A5108411448
S1130B50510471F7E5C0843611F0893639F5F8018E
S1130B6027FF07C060817181828193810C5F1F4FD1
S1130B7008C060817181072E000C880B990B0E5FF1
S1130B801F4F2F76722E97FF09C090958095709510
S1130B9061957F4F8F4F9F4F2068722E2AE030E07F
S1130BA0A4010E94F206A82EA81844C0853729F48F
S1130BB02F7EB22E2AE030E025C0F22FF97FBF2E1F
S1130BC08F36C1F018F4883579F0B4C0803719F045
S1130BD0883721F0AFC02F2F2061B22EB4FE0DC094
S1130BE08B2D8460B82E09C024FF0AC09F2F966005
S1130BF0B92E06C028E030E005C020E130E002C094
S1130C0020E132E0F801B7FE07C060817181828182
S1130C1093810C5F1F4F06C06081718180E090E07A
S1130C200E5F1F4FA4010E94F206A82EA818FB2DE8
S1130C30FF777F2E76FE0BC0372D3E7FA51450F430
S1130C4074FE0AC072FC08C0372D3E7E05C0BA2C63
S1130C50372D03C0BA2C01C0B52C34FF0DC0FE01E2
S1130C60EA0DF11D8081803311F4397E09C032FF11
S1130C7006C0B394B39404C0832F867809F0B39468
S1130C8033FD13C030FF06C05A2CB31418F4530CB0
S1130C905B18B32CB31468F4B70180E290E03C878E
S1130CA00E94BA06B3943C85F5CFB31410F43B18F4
S1130CB001C0312C34FF12C0B70180E390E03C87BF
S1130CC00E94BA063C8532FF17C031FD03C088E795
S1130CD090E002C088E590E0B7010CC0832F8678CD
S1130CE059F031FF02C08BE201C080E237FD8DE292
S1130CF0B70190E00E94BA06A51438F4B70180E366
S1130D0090E00E94BA065A94F7CFAA94F401EA0D2F
S1130D10F11D8081B70190E00E94BA06A110F5CFC1
S1130D20332009F451CEB70180E290E00E94BA0664
S1130D303A94F6CFF7018681978102C08FEF9FEF37
S1130D402C96E2E10C946C07FC0105906150704014
S1130D500110D8F7809590958E0F9F1F0895FC0180
S1130D606150704001900110D8F7809590958E0FD6
S1130D709F1F08950F931F93CF93DF93FB0123814C
S1130D8021FD03C08FEF9FEF28C022FF16C04681CC
S1130D905781248135814217530744F4A081B181DE
S1130DA09D012F5F3F4F318320838C9326813781B0
S1130DB02F5F3F4F3783268310C0EB01092F182F75
S1130DC00084F185E02D0995892BE1F68E819F81C0
S1130DD001969F838E83812F902FDF91CF911F9156
S1130DE00F910895FA01AA27283051F1203181F199
S1130DF0E8946F936E7F6E5F7F4F8F4F9F4FAF4F1F
S1130E00B1E03ED0B4E03CD0670F781F891F9A1F31
S1130E10A11D680F791F8A1F911DA11D6A0F711DE5
S1130E20811D911DA11D20D009F468943F912AE0F1
S1130E30269F11243019305D3193DEF6CF010895D9
S1130E40462F4770405D4193B3E00FD0C9F7F6CF0A
S1130E50462F4F70405D4A3318F0495D31FD4052D2
S1130E60419302D0A9F7EACFB4E0A6959795879568
S1130E7077956795BA95C9F7009761057105089547
S1130E809B01AC010A2E06945795479537952795F3
S1130E90BA95C9F7620F731F841F951FA01D08958B
S1130EA02F923F924F925F926F927F928F929F9276
S1130EB0AF92BF92CF92DF92EF92FF920F931F9364
S1130EC0CF93DF93CDB7DEB7CA1BDB0B0FB6F89415
S1130ED0DEBF0FBECDBF09942A88398848885F8455
S1130EE06E847D848C849B84AA84B984C884DF80C6
S1130EF0EE80FD800C811B81AA81B981CE0FD11DAA
S1130F000FB6F894DEBF0FBECDBFED010895F8947F
S1050F10FFCF0D
S1130F1241540D0A0041542B5253540D0A004154BA
S1130F2245310D0A0041542B43574D4F44453D3141
S1130F320D0A0041542B43574A41503D2200220DD1
S1130F420A0041542B4349504D55583D300D0A0077
S1130F5241542B43495053544152543D2255445019
S1130F62222C22003139322E3136382E312E3235AE
S1130F723500222C00313031300025640041542BDD
S1130F8243495053454E443D0041542B4349504D2F
S1130F9255583D310D0A0041542B43495053455293
S1130FA25645523D312C0041542B4349505345522E
S1130FB25645523D300D0A00435243204552524F8A
S1050FC25200D7
S9030000FC
