:100000000C9434000C94E4020C9451000C945100B4
:100010000C9451000C9451000C9451000C9451001C
:100020000C9451000C9451000C9451000C9451000C
:100030000C9451000C9412020C9451000C94510039
:100040000C9451000C9451000C941D040C9451001C
:100050000C9451000C9451000C9451000C945100DC
:100060000C9451000C94510011241FBECFEFD8E026
:10007000DEBFCDBF11E0A0E0B1E0EEE5FFE002C0E1
:1000800005900D92A23CB107D9F723E0A2ECB1E0B4
:1000900001C01D92A131B207E1F70E949D010C94AD
:1000A000AD070C94000080E091E00E940E040895DA
:1000B0008091C40180FD08C08091C40181FD04C00D
:1000C0008091C40182FFF4CF08958091C4018E7F96
:1000D0008093C4018091C4018D7F8093C40180917D
:1000E000C4018B7F8093C4011092C3010E9453000E
:1000F0000E9458008091C4018E7F8093C40180913A
:10010000C4018D7F8093C4018091C4018B7F809353
:10011000C4018EE091E00E940E040E94580080917C
:10012000C4018E7F8093C4018091C4018D7F809330
:10013000C4018091C4018B7F8093C40185E191E06B
:100140000E940E040E9458008091C4018E7F80930B
:10015000C4018091C4018D7F8093C4018091C4014A
:100160008B7F8093C4018091C4018D7F8093C401F3
:1001700083E291E00E940E0481E391E00E940E046C
:1001800080E591E00E940E0481E391E00E940E045C
:100190008EE291E00E940E040E9458008091C401FA
:1001A00081FF07C08091C4018D7F8093C40182E0EC
:1001B00008958091C4018E7F8093C40182E391E011
:1001C0000E940E040E9458008091C4018E7F80938B
:1001D000C4018091C4018D7F8093C4018091C401CA
:1001E0008B7F8093C40180E491E00E940E0484E53B
:1001F00091E00E940E0482E691E00E940E0485E6E2
:1002000091E00E940E048FE291E00E940E040E9491
:1002100058008091C40181FF11C08091C4018E7F7C
:100220008093C4018091C4018D7F8093C40180912B
:10023000C4018B7F8093C40181E008958091C40143
:100240008E7F8093C4018091C4018D7F8093C4010F
:100250008091C4018B7F8093C40180E00895EF9268
:10026000FF920F931F93CF93DF9300D000D0CDB7B1
:10027000DEB79C019091C501992309F452C0890110
:10028000F90101900020E9F73197E21BF30BFF938E
:10029000EF938AE691E09F938F93CE0101967C01C4
:1002A0009F938F930E94D5048DE691E00E940E04E7
:1002B000C7010E940E048FE291E00E940E040F908D
:1002C0000F900F900F900F900F909091C40192FD9E
:1002D00004C09091C40191FFF8CF8091C40182FFC6
:1002E00004C0C8010E940E040BC08091C40181FFAC
:1002F00007C08091C4018D7F8093C40181E012C04A
:100300008091C4018E7F8093C4018091C4018D7F50
:100310008093C4018091C4018B7F8093C40180E0ED
:1003200001C081E00F900F900F900F90DF91CF915F
:100330001F910F91FF90EF9008952FEF3FEF8CE208
:10034000215030408040E1F700C0000081E084B9D6
:1003500095E09093810080936F000E94240280E1D9
:100360000E947F0288EE93E00E949C0280E895E262
:100370000E94AC0244E061E084E00E94850267E0F4
:1003800080E00E94D7020E94D20280E090E00E94AA
:100390004D0287E79CEC0E944D02789487E090E044
:1003A0000E94FB039FEF2FE736E191502040304041
:1003B000E1F700C000000E94650088EA91E00E9419
:1003C0000E040E94580068E671E083EB91E00E9401
:1003D0002F018FEF9FEF26E731E0815090402040C2
:1003E0003040D9F700C0000080913E02877011F4C0
:1003F0000E946A0380913E0282FFE5CF86EC91E085
:100400000E9491038E3F38F486EC91E00E940E0426
:100410001092D601D8CF8111D6CF88EB91E00E94FF
:100420000E04D1CF1F920F920FB60F9211248F930B
:100430009F9395B181E0892785B99F918F910F9006
:100440000FBE0F901F90189584B18C6284B92498C8
:100450002A9A2C9A2FEF8FE794E021508040904009
:10046000E1F700C0000080913E028E7F80933E0243
:1004700080913E028D7F80933E0280913E028B7F71
:1004800080933E025298E9E6F0E080818D7F808380
:1004900080818E7F8083E89A0895AC012A9890E14C
:1004A00020E030E0552314F42B9A01C02B98220F42
:1004B000331F1C9921602D9A440F551F0000000026
:1004C0002D98915079F72A9AC901089570E0762FF6
:1004D000662728E030E0AB014827592755233CF434
:1004E000880F991F41E2842740E1942702C0880FBA
:1004F000991F660F771F2150310969F7089590E021
:10050000876C90680E944D020895477050E05069D2
:10051000637070E0660F771F660F771F660F771F97
:10052000462B572B20E2829FC00111249927842B50
:10053000952B0E944D0208958036910538F0803445
:100540002FE0920728F08FE39FE002C080E690E062
:10055000906A0E944D020895873922E0920708F1BF
:100560009C01283185E1380778F440E050E060E6EE
:1005700078EA80E090E00E94B604C90101978068A3
:10058000966C0E944D02089540E050E06CEF72E4DA
:1005900085E090E00E949404C9010197966C0E9446
:1005A0004D02089580E090EE0E944D0208958770FC
:1005B00090E0986920E1629FB00111247727862B93
:1005C000972B0E944D0208951F920F920FB60F9223
:1005D00011242F933F934F935F936F937F938F9348
:1005E0009F93AF93BF93CF93EF93FF9380913E027E
:1005F00080FF3DC08091C2018436D8F4C091C20111
:1006000081E08C0F8093C20180E090EB0E944D024C
:10061000EC2FF0E0E15CFD4F80832091C20130E0DF
:1006200080913F0290E00396281739070CF440C0F0
:100630000FC088E092E80E944D0280913E028E7FBA
:1006400080933E0280913E02846080933E0230C0DF
:1006500088E092E80E944D0280913E028E7F809356
:100660003E0280913E02846080933E0221C08091D0
:100670003E0281FF1DC0E091C201F0E0E15CFD4F50
:10068000808190E0986B0E944D028091C20181119F
:100690000AC080913E028D7F80933E0288E092E8FE
:1006A0000E944D0205C08091C20181508093C20119
:1006B000FF91EF91CF91BF91AF919F918F917F91DA
:1006C0006F915F914F913F912F910F900FBE0F90BF
:1006D0001F90189580913E0282FD1DC080913E02C0
:1006E00081FD1BC080913E0280FD19C088EC92E81C
:1006F0000E944D0281E89AEC0E944D0283E89AEC38
:100700000E944D021092C20180913E02816080934E
:100710003E0280E0089581E0089582E0089583E03C
:100720000895CF92DF92EF92FF920F931F93CF9392
:10073000DF93EC0110913F0290913E0290FD4DC07D
:1007400080913E0282FF4BC0153658F4E12EF12C09
:10075000C70101966C0120E030E000E080E090E00D
:1007600008C0188280913E028B7F80933E0280E019
:1007700039C0F901E15CFD4F60810E9466020F5FA4
:10078000202F30E02C153D05A4F3F901E15CFD4F6D
:1007900020810F5FE02FF0E0E15CFD4F408130E011
:1007A000342B40913E024B7F40933E02281739077D
:1007B000C1F41E141F0464F4E0E4F2E0DE01212F12
:1007C00030E0205C3D4F91919D93E217F307D9F7FC
:1007D000C10FD11D1882812F05C08FEF03C08EEF8E
:1007E00001C080E0DF91CF911F910F91FF90EF90BA
:1007F000DF90CF9008959093C5008093C40088E95E
:100800008093C10086E08093C2000895E0ECF0E0A0
:10081000908195FFFDCF8093C6000895CF93DF931D
:10082000EC018881882331F021960E940604899189
:100830008111FBCFDF91CF9108951F920F920FB6D8
:100840000F9211248F93EF93FF938091C600E09154
:10085000C301F0E0E355FD4F80838A3009F049C0C1
:100860008091AD028F3451F48091AE028B3431F41B
:100870008091C40181608093C40138C08091AD0231
:10088000853471F48091AE02823551F48091B102C9
:10089000823531F48091C40182608093C40126C006
:1008A0008091AE028C3251F48091B0028F3431F4D9
:1008B0008091C5018F5F8093C50118C08091AE0201
:1008C0008C3251F48091B0028C3431F48091C501A6
:1008D00081508093C5010AC08091AD02833531F407
:1008E0008091B2028F3411F48091C4011092C3013F
:1008F00013C0803261F48091AD028E3369F480912F
:10090000C40184608093C4011092C30105C080912A
:10091000C3018F5F8093C301FF91EF918F910F907F
:100920000FBE0F901F901895A1E21A2EAA1BBB1B99
:10093000FD010DC0AA1FBB1FEE1FFF1FA217B307AB
:10094000E407F50720F0A21BB30BE40BF50B661FC1
:10095000771F881F991F1A9469F760957095809585
:1009600090959B01AC01BD01CF010895052E97FB29
:100970001EF400940E94CD0457FD07D00E949404F9
:1009800007FC03D04EF40C94CD045095409530955F
:1009900021953F4F4F4F5F4F0895909580957095EB
:1009A00061957F4F8F4F9F4F0895AEE0B0E0EBED24
:1009B000F4E00C9484070D891E8986E08C831A83E9
:1009C00009838FEF9FE79E838D83AE01475E5F4F64
:1009D0006F89788DCE0101960E94F8042F813885A9
:1009E000F801E20FF31F10822E96E4E00C94A007AA
:1009F000ACE0B0E0EEEFF4E00C9476077C016B0124
:100A00008A01FC0117821682838181FFBDC1CE015C
:100A100001964C01F7019381F60193FD859193FFB7
:100A200081916F01882309F4ABC1853239F493FDBC
:100A3000859193FF81916F01853229F4B70190E090
:100A40000E94E006E7CF512C312C20E02032A0F4A8
:100A50008B3269F030F4803259F0833269F42061CE
:100A60002CC08D3239F0803339F4216026C02260E9
:100A7000246023C0286021C027FD27C030ED380F37
:100A80003A3078F426FF06C0FAE05F9E300D11245C
:100A9000532E13C08AE0389E300D1124332E20626D
:100AA0000CC08E3221F426FD6BC1206406C08C364A
:100AB00011F4206802C0883641F4F60193FD859157
:100AC00093FF81916F018111C1CF982F9F7D955424
:100AD000933028F40C5F1F4FFFE3F9830DC083367A
:100AE00031F0833771F0833509F05BC022C0F80123
:100AF000808189830E5F1F4F44244394512C5401FD
:100B000015C03801F2E06F0E711CF801A080B180B1
:100B100026FF03C0652D70E002C06FEF7FEFC501B7
:100B20002C870E94D5062C0183012C852F77222E3D
:100B300017C03801F2E06F0E711CF801A080B1807F
:100B400026FF03C0652D70E002C06FEF7FEFC50187
:100B50002C870E94CA062C012C852068222E830136
:100B600023FC1BC0832D90E048165906B0F4B70152
:100B700080E290E00E94E0063A94F4CFF50127FC71
:100B8000859127FE81915F01B70190E00E94E00608
:100B900031103A94F1E04F1A51084114510471F7A1
:100BA000E5C0843611F0893639F5F80127FF07C012
:100BB00060817181828193810C5F1F4F08C06081C9
:100BC0007181072E000C880B990B0E5F1F4F2F763B
:100BD000722E97FF09C090958095709561957F4F13
:100BE0008F4F9F4F2068722E2AE030E0A4010E94B0
:100BF0001807A82EA81844C0853729F42F7EB22ED6
:100C00002AE030E025C0F22FF97FBF2E8F36C1F0E9
:100C100018F4883579F0B4C0803719F0883721F09E
:100C2000AFC02F2F2061B22EB4FE0DC08B2D84607B
:100C3000B82E09C024FF0AC09F2F9660B92E06C0A7
:100C400028E030E005C020E130E002C020E132E0E1
:100C5000F801B7FE07C060817181828193810C5FCA
:100C60001F4F06C06081718180E090E00E5F1F4FD2
:100C7000A4010E941807A82EA818FB2DFF777F2E2D
:100C800076FE0BC0372D3E7FA51450F474FE0AC0CB
:100C900072FC08C0372D3E7E05C0BA2C372D03C02C
:100CA000BA2C01C0B52C34FF0DC0FE01EA0DF11DB8
:100CB0008081803311F4397E09C032FF06C0B394BD
:100CC000B39404C0832F867809F0B39433FD13C026
:100CD00030FF06C05A2CB31418F4530C5B18B32C15
:100CE000B31468F4B70180E290E03C870E94E0060C
:100CF000B3943C85F5CFB31410F43B1801C0312CEC
:100D000034FF12C0B70180E390E03C870E94E00608
:100D10003C8532FF17C031FD03C088E790E002C078
:100D200088E590E0B7010CC0832F867859F031FF39
:100D300002C08BE201C080E237FD8DE2B70190E096
:100D40000E94E006A51438F4B70180E390E00E9409
:100D5000E0065A94F7CFAA94F401EA0DF11D8081C0
:100D6000B70190E00E94E006A110F5CF332009F40E
:100D700051CEB70180E290E00E94E0063A94F6CFAF
:100D8000F7018681978102C08FEF9FEF2C96E2E1F9
:100D90000C949207FC010590615070400110D8F747
:100DA000809590958E0F9F1F0895FC0161507040B3
:100DB00001900110D8F7809590958E0F9F1F089590
:100DC0000F931F93CF93DF93FB01238121FD03C07A
:100DD0008FEF9FEF28C022FF16C0468157812481E4
:100DE00035814217530744F4A081B1819D012F5FE3
:100DF0003F4F318320838C93268137812F5F3F4F74
:100E00003783268310C0EB01092F182F0084F1854A
:100E1000E02D0995892BE1F68E819F8101969F83B4
:100E20008E83812F902FDF91CF911F910F91089585
:100E3000FA01AA27283051F1203181F1E8946F930B
:100E40006E7F6E5F7F4F8F4F9F4FAF4FB1E03ED0B1
:100E5000B4E03CD0670F781F891F9A1FA11D680F4F
:100E6000791F8A1F911DA11D6A0F711D811D911D82
:100E7000A11D20D009F468943F912AE0269F1124F7
:100E80003019305D3193DEF6CF010895462F47705B
:100E9000405D4193B3E00FD0C9F7F6CF462F4F70B6
:100EA000405D4A3318F0495D31FD4052419302D014
:100EB000A9F7EACFB4E0A6959795879577956795BA
:100EC000BA95C9F700976105710508959B01AC01BA
:100ED0000A2E06945795479537952795BA95C9F7E1
:100EE000620F731F841F951FA01D08952F923F92BC
:100EF0004F925F926F927F928F929F92AF92BF922A
:100F0000CF92DF92EF92FF920F931F93CF93DF93D5
:100F1000CDB7DEB7CA1BDB0B0FB6F894DEBF0FBE32
:100F2000CDBF09942A88398848885F846E847D847F
:100F30008C849B84AA84B984C884DF80EE80FD8081
:100F40000C811B81AA81B981CE0FD11D0FB6F894F7
:0E0F5000DEBF0FBECDBFED010895F894FFCFB8
:100F5E0041540D0A0041542B5253540D0A00415472
:100F6E0045310D0A0041542B43574D4F44453D31F9
:100F7E000D0A0041542B43574A41503D2200220D89
:100F8E000A0041542B4349504D55583D300D0A002F
:100F9E0041542B43495053544152543D22554450D1
:100FAE00222C22003139322E3136382E312E323566
:100FBE003500222C00313031300025640041542B95
:100FCE0043495053454E443D0041542B4349504DE7
:100FDE0055583D310D0A0041542B4349505345524B
:100FEE005645523D312C0041542B434950534552E6
:100FFE005645523D300D0A0041542B43494653523B
:10100E000D0A0048616C6F00435243204552524F07
:02101E0052007E
:00000001FF
