S010000052656365697665722E73726563DF
S11300000C9434000C94D4020C9451000C945100C0
S11300100C9451000C9451000C9451000C94510018
S11300200C9451000C9451000C9451000C94510008
S11300300C9451000C94FD010C9451000C9451004B
S11300400C9451000C9451000C940D040C94510028
S11300500C9451000C9451000C9451000C945100D8
S11300600C9451000C94510011241FBECFEFD8E022
S1130070DEBFCDBF11E0A0E0B1E0EEE3FFE002C0DF
S113008005900D92A63CB107D9F723E0A6ECB1E0A8
S113009001C01D92A631B207E1F70E9495010C94AC
S11300A09D070C9400008DE191E00E94FE030895E9
S11300B08091C80180FD08C08091C80181FD04C001
S11300C08091C80182FFF4CF08958091C8018E7F8A
S11300D08093C8018091C8018D7F8093C80180916D
S11300E0C8018B7F8093C8011092C7010E945300FE
S11300F00E9458008091C8018E7F8093C80180912E
S1130100C8018D7F8093C8018091C8018B7F809343
S1130110C8018BE291E00E94FE030E945800809186
S1130120C8018E7F8093C8018091C8018D7F809320
S1130130C8018091C8018B7F8093C80182E391E05C
S11301400E94FE030E9458008091C8018E7F809314
S1130150C8018091C8018D7F8093C8018091C80136
S11301608B7F8093C8018091C8018D7F8093C801E3
S113017080E491E00E94FE038EE491E00E94FE037D
S11301808DE691E00E94FE038EE491E00E94FE035E
S11301908BE491E00E94FE030E9458008091C80104
S11301A081FF07C08091C8018D7F8093C80182E0E0
S11301B008958091C8018E7F8093C8018FE491E0F7
S11301C00E94FE030E9458008091C8018E7F809394
S11301D0C8018091C8018D7F8093C8018091C801B6
S11301E08B7F8093C8018DE591E00E94FE0381E737
S11301F091E00E94FE038FE791E00E94FE0382E8F3
S113020091E00E94FE038CE491E00E94FE030E94B0
S113021058008091C80181FF11C08091C8018E7F70
S11302208093C8018091C8018D7F8093C80180911B
S1130230C8018B7F8093C80181E008958091C80133
S11302408E7F8093C8018091C8018D7F8093C801FF
S11302508091C8018B7F8093C80180E00895EF925C
S1130260FF920F931F93CF93DF9300D000D0CDB7AD
S1130270DEB78C01FC0101900020E9F73197E81BFF
S1130280F90BFF93EF9387E891E09F938F93CE014F
S113029001967C019F938F930E94C5048AE891E0A4
S11302A00E94FE03C7010E94FE038CE491E00E94B9
S11302B0FE030F900F900F900F900F900F9090915E
S11302C0C80192FD04C09091C80191FFF8CF8091BC
S11302D0C80182FF04C0C8010E94FE030BC08091C4
S11302E0C80181FF07C08091C8018D7F8093C80138
S11302F081E010C08091C8018E7F8093C8018091F5
S1130300C8018D7F8093C8018091C8018B7F809341
S1130310C80180E00F900F900F900F90DF91CF9164
S11303201F910F91FF90EF9008952FEF8FE794E0C6
S1130330215080409040E1F700C0000081E084B982
S113034095E09093810080936F000E94140280E1F5
S11303500E946F0288EE93E00E948C0280E895E28E
S11303600E949C0244E061E084E00E94750267E020
S113037080E00E94C7020E94C20280E090E00E94D6
S11303803D0287E79CEC0E943D02789487E090E070
S11303900E94EB030E94650081EC809364008091CD
S11303A042028D3040F060E070E080E091E00E9415
S11303B02F011092420280914302877011F40E942F
S11303C05A038091430282FFEACF8AEC91E00E94B3
S11303D081038E3F48F460E070E08AEC91E00E9473
S11303E02F011092DA01DBCF8111D9CF60E070E0E8
S11303F089E091E00E942F01D2CF1F920F920FB695
S11304000F9211248F939F9395B181E0892785B929
S1130410809142028F5F809342029F918F910F904F
S11304200FBE0F901F90189584B18C6284B92498E4
S11304302A9A2C9A2FEF8FE794E021508040904025
S1130440E1F700C00000809143028E7F8093430255
S1130450809143028D7F80934302809143028B7F7E
S1130460809343025298E9E6F0E080818D7F808397
S113047080818E7F8083E89A0895AC012A9890E168
S113048020E030E0552314F42B9A01C02B98220F5E
S1130490331F1C9921602D9A440F551F0000000042
S11304A02D98915079F72A9AC901089570E0762F12
S11304B0662728E030E0AB014827592755233CF450
S11304C0880F991F41E2842740E1942702C0880FD6
S11304D0991F660F771F2150310969F7089590E03D
S11304E0876C90680E943D020895477050E05069FF
S11304F0637070E0660F771F660F771F660F771FB4
S1130500462B572B20E2829FC00111249927842B6C
S1130510952B0E943D0208958036910538F0803471
S11305202FE0920728F08FE39FE002C080E690E07E
S1130530906A0E943D020895873922E0920708F1EB
S11305409C01283185E1380778F440E050E060E60A
S113055078EA80E090E00E94A604C90101978068CF
S1130560966C0E943D02089540E050E06CEF72E406
S113057085E090E00E948404C9010197966C0E9472
S11305803D02089580E090EE0E943D020895877038
S113059090E0986920E1629FB00111247727862BAF
S11305A0972B0E943D0208951F920F920FB60F924F
S11305B011242F933F934F935F936F937F938F9364
S11305C09F93AF93BF93CF93EF93FF938091430295
S11305D080FF3DC08091C6018436D8F4C091C60125
S11305E081E08C0F8093C60180E090EB0E943D0275
S11305F0EC2FF0E0EC5BFD4F80832091C60130E0EE
S11306008091440290E00396281739070CF440C007
S11306100FC088E092E80E943D02809143028E7FE1
S1130620809343028091430284608093430230C0EC
S113063088E092E80E943D02809143028E7F80937D
S113064043028091430284608093430221C08091DD
S1130650430281FF1DC0E091C601F0E0EC5BFD4F59
S1130660808190E0986B0E943D028091C6018111C7
S11306700AC0809143028D7F8093430288E092E810
S11306800E943D0205C08091C60181508093C6013D
S1130690FF91EF91CF91BF91AF919F918F917F91F6
S11306A06F915F914F913F912F910F900FBE0F90DB
S11306B01F9018958091430282FD1DC080914302D2
S11306C081FD1BC08091430280FD19C088EC92E833
S11306D00E943D0281E89AEC0E943D0283E89AEC74
S11306E00E943D021092C601809143028160809372
S11306F0430280E0089581E0089582E0089583E054
S11307000895CF92DF92EF92FF920F931F93CF93AE
S1130710DF93EC01109144029091430290FD4DC08F
S11307208091430282FF4BC0153658F4E12EF12C20
S1130730C70101966C0120E030E000E080E090E029
S113074008C01882809143028B7F8093430280E02B
S113075039C0F901EC5BFD4F60810E9456020F5FC6
S1130760202F30E02C153D05A4F3F901EC5BFD4F7F
S113077020810F5FE02FF0E0EC5BFD4F408130E023
S1130780342B409143024B7F40934302281739078F
S1130790C1F41E141F0464F4E5E4F2E0DE01212F29
S11307A030E02B5B3D4F91919D93E217F307D9F70E
S11307B0C10FD11D1882812F05C08FEF03C08EEFAA
S11307C001C080E0DF91CF911F910F91FF90EF90D6
S11307D0DF90CF9008959093C5008093C40088E97A
S11307E08093C10086E08093C2000895E0ECF0E0BD
S11307F0908195FFFDCF8093C6000895CF93DF933A
S1130800EC018881882331F021960E94F6038991B6
S11308108111FBCFDF91CF9108951F920F920FB6F4
S11308200F9211248F93EF93FF938091C600E09170
S1130830C701F0E0EE54FD4F80838A3009F049C0CF
S11308408091B2028F3451F48091B3028B3431F42D
S11308508091C80181608093C80138C08091B20240
S1130860853471F48091B302823551F48091B602DB
S1130870823531F48091C80182608093C80126C01A
S11308808091B3028C3251F48091B5028F3431F4EB
S11308908091C9018F5F8093C90118C08091B30210
S11308A08C3251F48091B5028C3431F48091C901B9
S11308B081508093C9010AC08091B202833531F41A
S11308C08091B7028F3411F48091C8011092C7014E
S11308D013C0803261F48091B2028E3369F4809146
S11308E0C80184608093C8011092C70105C080913B
S11308F0C7018F5F8093C701FF91EF918F910F9094
S11309000FBE0F901F901895A1E21A2EAA1BBB1BB5
S1130910FD010DC0AA1FBB1FEE1FFF1FA217B307C7
S1130920E407F50720F0A21BB30BE40BF50B661FDD
S1130930771F881F991F1A9469F7609570958095A1
S113094090959B01AC01BD01CF010895052E97FB45
S11309501EF400940E94BD0457FD07D00E94840435
S113096007FC03D04EF40C94BD045095409530958B
S113097021953F4F4F4F5F4F089590958095709507
S113098061957F4F8F4F9F4F0895AEE0B0E0EBEC41
S1130990F4E00C9474070D891E8986E08C831A8315
S11309A009838FEF9FE79E838D83AE01475E5F4F80
S11309B06F89788DCE0101960E94E8042F813885D5
S11309C0F801E20FF31F10822E96E4E00C949007D6
S11309D0ACE0B0E0EEEEF4E00C9466077C016B0151
S11309E08A01FC0117821682838181FFBDC1CE0179
S11309F001964C01F7019381F60193FD859193FFD4
S1130A0081916F01882309F4ABC1853239F493FDD8
S1130A10859193FF81916F01853229F4B70190E0AC
S1130A200E94D006E7CF512C312C20E02032A0F4D4
S1130A308B3269F030F4803259F0833269F42061EA
S1130A402CC08D3239F0803339F4216026C0226005
S1130A50246023C0286021C027FD27C030ED380F53
S1130A603A3078F426FF06C0FAE05F9E300D112478
S1130A70532E13C08AE0389E300D1124332E206289
S1130A800CC08E3221F426FD6BC1206406C08C3666
S1130A9011F4206802C0883641F4F60193FD859173
S1130AA093FF81916F018111C1CF982F9F7D955440
S1130AB0933028F40C5F1F4FFFE3F9830DC0833696
S1130AC031F0833771F0833509F05BC022C0F8013F
S1130AD0808189830E5F1F4F44244394512C540119
S1130AE015C03801F2E06F0E711CF801A080B180CE
S1130AF026FF03C0652D70E002C06FEF7FEFC501D4
S1130B002C870E94C5062C0183012C852F77222E69
S1130B1017C03801F2E06F0E711CF801A080B1809B
S1130B2026FF03C0652D70E002C06FEF7FEFC501A3
S1130B302C870E94BA062C012C852068222E830162
S1130B4023FC1BC0832D90E048165906B0F4B7016E
S1130B5080E290E00E94D0063A94F4CFF50127FC9D
S1130B60859127FE81915F01B70190E00E94D00634
S1130B7031103A94F1E04F1A51084114510471F7BD
S1130B80E5C0843611F0893639F5F80127FF07C02E
S1130B9060817181828193810C5F1F4F08C06081E5
S1130BA07181072E000C880B990B0E5F1F4F2F7657
S1130BB0722E97FF09C090958095709561957F4F2F
S1130BC08F4F9F4F2068722E2AE030E0A4010E94CC
S1130BD00807A82EA81844C0853729F42F7EB22E02
S1130BE02AE030E025C0F22FF97FBF2E8F36C1F006
S1130BF018F4883579F0B4C0803719F0883721F0BB
S1130C00AFC02F2F2061B22EB4FE0DC08B2D846097
S1130C10B82E09C024FF0AC09F2F9660B92E06C0C3
S1130C2028E030E005C020E130E002C020E132E0FD
S1130C30F801B7FE07C060817181828193810C5FE6
S1130C401F4F06C06081718180E090E00E5F1F4FEE
S1130C50A4010E940807A82EA818FB2DFF777F2E59
S1130C6076FE0BC0372D3E7FA51450F474FE0AC0E7
S1130C7072FC08C0372D3E7E05C0BA2C372D03C048
S1130C80BA2C01C0B52C34FF0DC0FE01EA0DF11DD4
S1130C908081803311F4397E09C032FF06C0B394D9
S1130CA0B39404C0832F867809F0B39433FD13C042
S1130CB030FF06C05A2CB31418F4530C5B18B32C31
S1130CC0B31468F4B70180E290E03C870E94D00638
S1130CD0B3943C85F5CFB31410F43B1801C0312C08
S1130CE034FF12C0B70180E390E03C870E94D00635
S1130CF03C8532FF17C031FD03C088E790E002C095
S1130D0088E590E0B7010CC0832F867859F031FF55
S1130D1002C08BE201C080E237FD8DE2B70190E0B2
S1130D200E94D006A51438F4B70180E390E00E9435
S1130D30D0065A94F7CFAA94F401EA0DF11D8081EC
S1130D40B70190E00E94D006A110F5CF332009F43A
S1130D5051CEB70180E290E00E94D0063A94F6CFDB
S1130D60F7018681978102C08FEF9FEF2C96E2E115
S1130D700C948207FC010590615070400110D8F773
S1130D80809590958E0F9F1F0895FC0161507040CF
S1130D9001900110D8F7809590958E0F9F1F0895AC
S1130DA00F931F93CF93DF93FB01238121FD03C096
S1130DB08FEF9FEF28C022FF16C046815781248100
S1130DC035814217530744F4A081B1819D012F5FFF
S1130DD03F4F318320838C93268137812F5F3F4F90
S1130DE03783268310C0EB01092F182F0084F18567
S1130DF0E02D0995892BE1F68E819F8101969F83D1
S1130E008E83812F902FDF91CF911F910F910895A1
S1130E10FA01AA27283051F1203181F1E8946F9327
S1130E206E7F6E5F7F4F8F4F9F4FAF4FB1E03ED0CD
S1130E30B4E03CD0670F781F891F9A1FA11D680F6B
S1130E40791F8A1F911DA11D6A0F711D811D911D9E
S1130E50A11D20D009F468943F912AE0269F112413
S1130E603019305D3193DEF6CF010895462F477077
S1130E70405D4193B3E00FD0C9F7F6CF462F4F70D2
S1130E80405D4A3318F0495D31FD4052419302D030
S1130E90A9F7EACFB4E0A6959795879577956795D6
S1130EA0BA95C9F700976105710508959B01AC01D6
S1130EB00A2E06945795479537952795BA95C9F7FD
S1130EC0620F731F841F951FA01D08952F923F92D8
S1130ED04F925F926F927F928F929F92AF92BF9246
S1130EE0CF92DF92EF92FF920F931F93CF93DF93F2
S1130EF0CDB7DEB7CA1BDB0B0FB6F894DEBF0FBE4F
S1130F00CDBF09942A88398848885F846E847D849B
S1130F108C849B84AA84B984C884DF80EE80FD809D
S1130F200C811B81AA81B981CE0FD11D0FB6F89413
S1110F30DEBF0FBECDBFED010895F894FFCFD4
S1130F3E636F6E6E74657374004352432843484561
S1130F4E434B53554D29204552524F520041540D97
S1130F5E0A0041542B5253540D0A00415445310D8D
S1130F6E0A0041542B43574D4F44453D310D0A0061
S1130F7E41542B43574A41503D2200220D0A004151
S1130F8E542B4349504D55583D300D0A0041542BB6
S1130F9E43495053544152543D22554450222C221D
S1130FAE003139322E3136382E312E32353500227B
S1130FBE2C00313031300025640041542B4349500C
S1130FCE53454E443D0041542B4349504D55583DD5
S1130FDE310D0A0041542B43495053455256455244
S1130FEE3D312C0041542B434950534552564552E2
S1090FFE3D300D0A000065
S9030000FC
