:100000000C9434000C9498010C94C5000C9451008D
:100010000C9451000C9451000C9451000C9451001C
:100020000C9451000C9451000C9451000C9451000C
:100030000C9451000C94A2000C9451000C945100AB
:100040000C94B4000C9451000C9451000C94510089
:100050000C9451000C9451000C9451000C945100DC
:100060000C9451000C94510011241FBECFEFD8E026
:10007000DEBFCDBF11E0A0E0B1E0E8E1F6E002C0F4
:1000800005900D92A031B107D9F721E0A0E1B1E0D0
:1000900001C01D92A238B207E1F70E9453000C94F0
:1000A0000A030C9400002FEF81EE94E02150804071
:1000B0009040E1F700C0000081E084B985B9539811
:1000C0004B9AE99AEEE6F0E090819160908394E09B
:1000D0009093810080936F000E94DB00789480E110
:1000E0000E94330188EE93E00E94500180E895E27F
:1000F0000E94600144E061E084E00E94390167E011
:1001000080E00E948B010E94860180E090E00E94C6
:10011000010187E79CEC0E94010187E090E00E94CA
:10012000BE02809112018823E1F385B58A7F85BDE7
:10013000109212011092110160E080E091E00E94A3
:100140001E02EFCF1F920F920FB60F9211248F93C2
:100150009F9395B181E0892785B99F918F910F90E9
:100160000FBE0F901F9018951F920F920FB60F920F
:1001700011248F93809112018F5F809312018F91D0
:100180000F900FBE0F901F9018951F920F920FB6F1
:100190000F9211248F9380911101811106C081E08B
:1001A0008093110185B5856085BD8F910F900FBE3D
:1001B0000F901F90189584B18C6284B924982A9A64
:1001C0002C9A87EA91E60197F1F700C00000809130
:1001D00013018E7F80931301809113018D7F809393
:1001E0001301809113018B7F809313015298E9E6EC
:1001F000F0E080818D7F808380818E7F8083E89A8C
:100200000895AC012A9890E120E030E0552314F4E1
:100210002B9A01C02B98220F331F1C9921602D9A15
:10022000440F551F000000002D98915079F72A9A2D
:10023000C901089570E0762F662728E030E0AB0111
:100240004827592755233CF4880F991F41E28427FA
:1002500040E1942702C0880F991F660F771F215035
:10026000310969F7089590E0876C90680E94010158
:100270000895477050E05069637070E0660F771F13
:10028000660F771F660F771F462B572B20E2829F42
:10029000C00111249927842B952B0E9401010895F8
:1002A0008036910538F080342FE0920728F08FE3F4
:1002B0009FE002C080E690E0906A0E9401010895EC
:1002C000873922E0920708F19C01283185E138073F
:1002D00078F440E050E060E678EA80E090E00E9448
:1002E000EB02C90101978068966C0E940101089594
:1002F00040E050E06CEF72E485E090E00E94C902BB
:10030000C9010197966C0E940101089580E090EE6A
:100310000E9401010895877090E0986920E1629F32
:10032000B00111247727862B972B0E940101089595
:100330001F920F920FB60F9211242F933F934F935A
:100340005F936F937F938F939F93AF93BF93CF935D
:10035000EF93FF938091130180FF3DC080911001C6
:100360008436D8F4C091100181E08C0F8093100185
:1003700080E090E00E940101EC2FF0E0EC5EFE4F87
:1003800080832091100130E08091140190E0039669
:10039000281739070CF440C00FC088E092E80E948B
:1003A0000101809113018E7F8093130180911301CD
:1003B00084608093130130C088E092E80E940101BC
:1003C000809113018E7F80931301809113018460CB
:1003D0008093130121C08091130181FF1DC0E09122
:1003E0001001F0E0EC5EFE4F808190E0986B0E947F
:1003F00001018091100181110AC0809113018D7F4C
:100400008093130188E092E80E94010105C0809169
:100410001001815080931001FF91EF91CF91BF9116
:10042000AF919F918F917F916F915F914F913F918C
:100430002F910F900FBE0F901F901895BF92CF92E3
:10044000DF92EF92FF920F931F93CF93DF936C0194
:10045000062F611107C0FC0101900020E9F73197D8
:100460000E2F081B9091130191FD79C0809113010B
:1004700080FD77C0053608F076C080911301826058
:100480008093130189E0800F80931001B0901001D8
:10049000EB2DF0E0EC5EFE4F8AEA8083EFEFEB0D90
:1004A000F0E0EC5EFE4F8083EEEFEB0DF0E0EC5EF3
:1004B000FE4F8083EDEFEB0DF0E0EC5EFE4F8DE242
:1004C0008083ECEFEB0DF0E0EC5EFE4F84ED80837B
:1004D000CAEFCB0DEBEFEB0DF0E0EC5EFE4F0083CF
:1004E000602F80E090E00E941A010023D1F0760195
:1004F00010E0C00ED11EDFEFDC0FD701F701219114
:100500007F01EC2FF0E0EC5EFE4F20836C910E94A7
:100510001A01CD2FEC14FD0471F7EB2DE01BCAEF8F
:10052000CE0FEC2FF0E0EC5EFE4F8083EFEFEC0F90
:10053000F0E0EC5EFE4F9083EEEFEC0FF0E0EC5E4F
:10054000FE4F8AEA8083EDEFEC0FF0E0EC5EFE4FA9
:10055000808388E392E80E94010180E005C081E089
:1005600003C082E001C083E0DF91CF911F910F9122
:10057000FF90EF90DF90CF90BF9008959093C500CB
:100580008093C40088E18093C10086E08093C2001C
:100590000895A1E21A2EAA1BBB1BFD010DC0AA1FC4
:1005A000BB1FEE1FFF1FA217B307E407F50720F0DC
:1005B000A21BB30BE40BF50B661F771F881F991F57
:1005C0001A9469F760957095809590959B01AC01A0
:1005D000BD01CF010895052E97FB1EF400940E94E3
:1005E000020357FD07D00E94C90207FC03D04EF456
:1005F0000C94020350954095309521953F4F4F4FF5
:100600005F4F089590958095709561957F4F8F4FBE
:080610009F4F0895F894FFCFFD
:10061800427574746F6E207072657373656421001F
:00000001FF
