S01300005472616E736D69747465722E7372656374
S11300000C9434000C9456010C9451000C9451003F
S11300100C9451000C9451000C9451000C94510018
S11300200C9451000C9451000C9451000C94510008
S11300300C9451000C9451000C9451000C945100F8
S11300400C9451000C9451000C9451000C945100E8
S11300500C9451000C9451000C9451000C945100D8
S11300600C9451000C94510011241FBECFEFD8E022
S1130070DEBFCDBF11E0A0E0B1E0EEE7F5E002C0E5
S113008005900D92AC30B107D9F721E0ACE0B1E0B6
S113009001C01D92AC37B207E1F70E9453000C94E3
S11300A0BD020C94000082E084B9299A0E94960053
S11300B0789480E10E94F10088EE93E00E940E01A2
S11300C080E895E20E941E0144E061E084E00E9421
S11300D0F70067E080E00E9449010E94440180E04B
S11300E090E00E94BF0087E79CEC0E94BF0060E0A4
S11300F080E091E00E94DC012FE788E391E0215049
S113010080409040E1F700C0000080910D0181FD26
S1130110FCCF2FEF84E39CE0215080409040E1F736
S113012000C00000299880E090E0089584B18C62BA
S113013084B924982A9A2C9A2FEF80E792E02150D0
S113014080409040E1F700C0000080910D018E7F57
S113015080930D0180910D018D7F80930D0180911D
S11301600D018B7F80930D015298E9E6F0E08081C8
S11301708D7F808380818E7F8083E89A0895AC018F
S11301802A9890E120E030E0552314F42B9A01C022
S11301902B98220F331F1C9921602D9A440F551F51
S11301A0000000002D98915079F72A9AC90108950A
S11301B070E0762F662728E030E0AB014827592706
S11301C055233CF4880F991F41E2842740E194278A
S11301D002C0880F991F660F771F2150310969F7F4
S11301E0089590E0876C90680E94BF00089547705E
S11301F050E05069637070E0660F771F660F771FD9
S1130200660F771F462B572B20E2829FC0011124D3
S11302109927842B952B0E94BF0008958036910561
S113022038F080342FE0920728F08FE39FE002C07B
S113023080E690E0906A0E94BF000895873922E02A
S1130240920708F19C01283185E1380778F440E0F1
S113025050E060E678EA80E090E00E949E02C901E6
S113026001978068966C0E94BF00089540E050E0BA
S11302706CEF72E485E090E00E947C02C901019772
S1130280966C0E94BF00089580E090EE0E94BF002B
S11302900895877090E0986920E1629FB00111246D
S11302A07727862B972B0E94BF0008951F920F92E9
S11302B00FB60F9211242F933F934F935F936F9335
S11302C07F938F939F93AF93BF93CF93EF93FF93BA
S11302D080910D0180FF3DC080910C018436D8F4DB
S11302E0C0910C0181E08C0F80930C0180E090E0C0
S11302F00E94BF00EC2FF0E0E25FFE4F808320916C
S11303000C0130E080910E0190E003962817390724
S11303100CF440C00FC088E092E80E94BF008091B6
S11303200D018E7F80930D0180910D018460809377
S11303300D0130C088E092E80E94BF0080910D0159
S11303408E7F80930D0180910D01846080930D0157
S113035021C080910D0181FF1DC0E0910C01F0E0EE
S1130360E25FFE4F808190E0986B0E94BF00809115
S11303700C0181110AC080910D018D7F80930D01C4
S113038088E092E80E94BF0005C080910C01815072
S113039080930C01FF91EF91CF91BF91AF919F9109
S11303A08F917F916F915F914F913F912F910F901A
S11303B00FBE0F901F901895BF92CF92DF92EF92CD
S11303C0FF920F931F93CF93DF936C01062F61115C
S11303D007C0FC0101900020E9F731970E2F081B9C
S11303E090910D0191FD79C080910D0180FD77C040
S11303F0053608F076C080910D01826080930D016E
S113040089E0800F80930C01B0900C01EB2DF0E09B
S1130410E25FFE4F8AEA8083EFEFEB0DF0E0E25FEC
S1130420FE4F8083EEEFEB0DF0E0E25FFE4F808342
S1130430EDEFEB0DF0E0E25FFE4F8DE28083ECEF39
S1130440EB0DF0E0E25FFE4F84ED8083CAEFCB0D4D
S1130450EBEFEB0DF0E0E25FFE4F0083602F80E0F6
S113046090E00E94D8000023D1F0760110E0C00E85
S1130470D11EDFEFDC0FD701F70121917F01EC2FB3
S1130480F0E0E25FFE4F20836C910E94D800CD2FF4
S1130490EC14FD0471F7EB2DE01BCAEFCE0FEC2F2B
S11304A0F0E0E25FFE4F8083EFEFEC0FF0E0E25FFD
S11304B0FE4F9083EEEFEC0FF0E0E25FFE4F8AEA2E
S11304C08083EDEFEC0FF0E0E25FFE4F808388E382
S11304D092E80E94BF0080E005C081E003C082E092
S11304E001C083E0DF91CF911F910F91FF90EF90B6
S11304F0DF90CF90BF900895A1E21A2EAA1BBB1BD8
S1130500FD010DC0AA1FBB1FEE1FFF1FA217B307DB
S1130510E407F50720F0A21BB30BE40BF50B661FF1
S1130520771F881F991F1A9469F7609570958095B5
S113053090959B01AC01BD01CF010895052E97FB59
S11305401EF400940E94B50257FD07D00E947C025D
S113055007FC03D04EF40C94B502509540953095A9
S113056021953F4F4F4F5F4F08959095809570951B
S111057061957F4F8F4F9F4F0895F894FFCFF2
S10F057E2D2D2D52494E472D2D2D00002F
S9030000FC
