:100000000C9434000C9467010C9451000C94510032
:100010000C9451000C9451000C9451000C9451001C
:100020000C9451000C9451000C9451000C9451000C
:100030000C9451000C9498000C9451000C945100B5
:100040000C9451000C9451000C9451000C945100EC
:100050000C9451000C9451000C9451000C945100DC
:100060000C9451000C94510011241FBECFEFD8E026
:10007000DEBFCDBF11E0A0E0B1E0E6EBF5E002C0ED
:1000800005900D92AE30B107D9F721E0AEE0B1E0B6
:1000900001C01D92AE37B207E1F70E9453000C94E5
:1000A000D9020C9400002FEF81EE94E021508040A3
:1000B0009040E1F700C0000081E084B985B994E088
:1000C0009093810080936F000E94AA00789480E151
:1000D0000E94020188EE93E00E941F0180E895E2F1
:1000E0000E942F0144E061E084E00E94080167E083
:1000F00080E00E945A010E94550180E090E00E9439
:10010000D00087E79CEC0E94D00087E090E00E943E
:100110008D0260E080E091E00E94ED012FEF89E622
:1001200098E1215080409040E1F700C00000F1CFFD
:100130001F920F920FB60F9211248F939F9395B138
:1001400081E0892785B99F918F910F900FBE0F9005
:100150001F90189584B18C6284B924982A9A2C9A9D
:1001600087EA91E60197F1F700C0000080910F0146
:100170008E7F80930F0180910F018D7F80930F01FF
:1001800080910F018B7F80930F015298E9E6F0E098
:1001900080818D7F808380818E7F8083E89A08951F
:1001A000AC012A9890E120E030E0552314F42B9A1A
:1001B00001C02B98220F331F1C9921602D9A440FE8
:1001C000551F000000002D98915079F72A9AC90117
:1001D000089570E0762F662728E030E0AB014827CD
:1001E000592755233CF4880F991F41E2842740E1A9
:1001F000942702C0880F991F660F771F215031097D
:1002000069F7089590E0876C90680E94D000089587
:10021000477050E05069637070E0660F771F660F9B
:10022000771F660F771F462B572B20E2829FC00156
:1002300011249927842B952B0E94D0000895803695
:10024000910538F080342FE0920728F08FE39FE08B
:1002500002C080E690E0906A0E94D000089587393D
:1002600022E0920708F19C01283185E1380778F4F3
:1002700040E050E060E678EA80E090E00E94BA0258
:10028000C90101978068966C0E94D000089540E0F3
:1002900050E06CEF72E485E090E00E949802C901A2
:1002A0000197966C0E94D000089580E090EE0E9425
:1002B000D0000895877090E0986920E1629FB001B6
:1002C00011247727862B972B0E94D00008951F9228
:1002D0000F920FB60F9211242F933F934F935F937A
:1002E0006F937F938F939F93AF93BF93CF93EF932E
:1002F000FF9380910F0180FF3DC080910E018436F5
:10030000D8F4C0910E0181E08C0F80930E0180E043
:1003100090E00E94D000EC2FF0E0E05FFE4F808381
:1003200020910E0130E08091100190E00396281793
:1003300039070CF440C00FC088E092E80E94D0005A
:1003400080910F018E7F80930F0180910F01846057
:1003500080930F0130C088E092E80E94D000809125
:100360000F018E7F80930F0180910F018460809335
:100370000F0121C080910F0181FF1DC0E0910E018E
:10038000F0E0E05FFE4F808190E0986B0E94D0002B
:1003900080910E0181110AC080910F018D7F8093A1
:1003A0000F0188E092E80E94D00005C080910E0104
:1003B000815080930E01FF91EF91CF91BF91AF914A
:1003C0009F918F917F916F915F914F913F912F916D
:1003D0000F900FBE0F901F901895BF92CF92DF9293
:1003E000EF92FF920F931F93CF93DF936C01062F31
:1003F000611107C0FC0101900020E9F731970E2F31
:10040000081B90910F0191FD79C080910F0180FD33
:1004100077C0053608F076C080910F018260809326
:100420000F0189E0800F80930E01B0900E01EB2D3B
:10043000F0E0E05FFE4F8AEA8083EFEFEB0DF0E043
:10044000E05FFE4F8083EEEFEB0DF0E0E05FFE4FEC
:100450008083EDEFEB0DF0E0E05FFE4F8DE28083F7
:10046000ECEFEB0DF0E0E05FFE4F84ED8083CAEF30
:10047000CB0DEBEFEB0DF0E0E05FFE4F0083602F64
:1004800080E090E00E94E9000023D1F0760110E0C6
:10049000C00ED11EDFEFDC0FD701F70121917F01E4
:1004A000EC2FF0E0E05FFE4F20836C910E94E900AA
:1004B000CD2FEC14FD0471F7EB2DE01BCAEFCE0F2E
:1004C000EC2FF0E0E05FFE4F8083EFEFEC0FF0E009
:1004D000E05FFE4F9083EEEFEC0FF0E0E05FFE4F49
:1004E0008AEA8083EDEFEC0FF0E0E05FFE4F80835F
:1004F00088E392E80E94D00080E005C081E003C05C
:1005000082E001C083E0DF91CF911F910F91FF90B6
:10051000EF90DF90CF90BF9008959093C5008093A7
:10052000C40088E18093C10086E08093C2000895F2
:10053000A1E21A2EAA1BBB1BFD010DC0AA1FBB1FE7
:10054000EE1FFF1FA217B307E407F50720F0A21B59
:10055000B30BE40BF50B661F771F881F991F1A94C6
:1005600069F760957095809590959B01AC01BD01F0
:10057000CF010895052E97FB1EF400940E94D1022E
:1005800057FD07D00E94980207FC03D04EF40C944C
:10059000D10250954095309521953F4F4F4F5F4F79
:1005A000089590958095709561957F4F8F4F9F4FDF
:0605B0000895F894FFCF4E
:0E05B60048414C4F2048414C4F0D0A0D0A00A1
:00000001FF
